{
  "_format": "hh-sol-artifact-1",
  "contractName": "ScaleCapacity",
  "sourceName": "contracts/ScaleCapacity.sol",
  "abi": [
    {
      "inputs": [],
      "stateMutability": "nonpayable",
      "type": "constructor"
    },
    {
      "anonymous": false,
      "inputs": [
        {
          "indexed": true,
          "internalType": "address",
          "name": "account",
          "type": "address"
        },
        {
          "indexed": true,
          "internalType": "address",
          "name": "operator",
          "type": "address"
        },
        {
          "indexed": false,
          "internalType": "bool",
          "name": "approved",
          "type": "bool"
        }
      ],
      "name": "ApprovalForAll",
      "type": "event"
    },
    {
      "anonymous": false,
      "inputs": [
        {
          "indexed": false,
          "internalType": "address",
          "name": "to",
          "type": "address"
        },
        {
          "indexed": false,
          "internalType": "uint256[]",
          "name": "tokenIDs",
          "type": "uint256[]"
        },
        {
          "indexed": false,
          "internalType": "string[]",
          "name": "urls",
          "type": "string[]"
        }
      ],
      "name": "MintBatchEvent",
      "type": "event"
    },
    {
      "anonymous": false,
      "inputs": [
        {
          "indexed": false,
          "internalType": "address",
          "name": "account",
          "type": "address"
        }
      ],
      "name": "Paused",
      "type": "event"
    },
    {
      "anonymous": false,
      "inputs": [
        {
          "indexed": true,
          "internalType": "bytes32",
          "name": "role",
          "type": "bytes32"
        },
        {
          "indexed": true,
          "internalType": "bytes32",
          "name": "previousAdminRole",
          "type": "bytes32"
        },
        {
          "indexed": true,
          "internalType": "bytes32",
          "name": "newAdminRole",
          "type": "bytes32"
        }
      ],
      "name": "RoleAdminChanged",
      "type": "event"
    },
    {
      "anonymous": false,
      "inputs": [
        {
          "indexed": true,
          "internalType": "bytes32",
          "name": "role",
          "type": "bytes32"
        },
        {
          "indexed": true,
          "internalType": "address",
          "name": "account",
          "type": "address"
        },
        {
          "indexed": true,
          "internalType": "address",
          "name": "sender",
          "type": "address"
        }
      ],
      "name": "RoleGranted",
      "type": "event"
    },
    {
      "anonymous": false,
      "inputs": [
        {
          "indexed": true,
          "internalType": "bytes32",
          "name": "role",
          "type": "bytes32"
        },
        {
          "indexed": true,
          "internalType": "address",
          "name": "account",
          "type": "address"
        },
        {
          "indexed": true,
          "internalType": "address",
          "name": "sender",
          "type": "address"
        }
      ],
      "name": "RoleRevoked",
      "type": "event"
    },
    {
      "anonymous": false,
      "inputs": [
        {
          "indexed": true,
          "internalType": "address",
          "name": "operator",
          "type": "address"
        },
        {
          "indexed": true,
          "internalType": "address",
          "name": "from",
          "type": "address"
        },
        {
          "indexed": true,
          "internalType": "address",
          "name": "to",
          "type": "address"
        },
        {
          "indexed": false,
          "internalType": "uint256[]",
          "name": "ids",
          "type": "uint256[]"
        },
        {
          "indexed": false,
          "internalType": "uint256[]",
          "name": "values",
          "type": "uint256[]"
        }
      ],
      "name": "TransferBatch",
      "type": "event"
    },
    {
      "anonymous": false,
      "inputs": [
        {
          "indexed": true,
          "internalType": "address",
          "name": "operator",
          "type": "address"
        },
        {
          "indexed": true,
          "internalType": "address",
          "name": "from",
          "type": "address"
        },
        {
          "indexed": true,
          "internalType": "address",
          "name": "to",
          "type": "address"
        },
        {
          "indexed": false,
          "internalType": "uint256",
          "name": "id",
          "type": "uint256"
        },
        {
          "indexed": false,
          "internalType": "uint256",
          "name": "value",
          "type": "uint256"
        }
      ],
      "name": "TransferSingle",
      "type": "event"
    },
    {
      "anonymous": false,
      "inputs": [
        {
          "indexed": false,
          "internalType": "string",
          "name": "value",
          "type": "string"
        },
        {
          "indexed": true,
          "internalType": "uint256",
          "name": "id",
          "type": "uint256"
        }
      ],
      "name": "URI",
      "type": "event"
    },
    {
      "anonymous": false,
      "inputs": [
        {
          "indexed": false,
          "internalType": "address",
          "name": "account",
          "type": "address"
        }
      ],
      "name": "Unpaused",
      "type": "event"
    },
    {
      "inputs": [],
      "name": "DEFAULT_ADMIN_ROLE",
      "outputs": [
        {
          "internalType": "bytes32",
          "name": "",
          "type": "bytes32"
        }
      ],
      "stateMutability": "view",
      "type": "function"
    },
    {
      "inputs": [],
      "name": "MINTER_ROLE",
      "outputs": [
        {
          "internalType": "bytes32",
          "name": "",
          "type": "bytes32"
        }
      ],
      "stateMutability": "view",
      "type": "function"
    },
    {
      "inputs": [],
      "name": "PAUSER_ROLE",
      "outputs": [
        {
          "internalType": "bytes32",
          "name": "",
          "type": "bytes32"
        }
      ],
      "stateMutability": "view",
      "type": "function"
    },
    {
      "inputs": [],
      "name": "URI_SETTER_ROLE",
      "outputs": [
        {
          "internalType": "bytes32",
          "name": "",
          "type": "bytes32"
        }
      ],
      "stateMutability": "view",
      "type": "function"
    },
    {
      "inputs": [
        {
          "internalType": "address",
          "name": "account",
          "type": "address"
        },
        {
          "internalType": "uint256",
          "name": "id",
          "type": "uint256"
        }
      ],
      "name": "balanceOf",
      "outputs": [
        {
          "internalType": "uint256",
          "name": "",
          "type": "uint256"
        }
      ],
      "stateMutability": "view",
      "type": "function"
    },
    {
      "inputs": [
        {
          "internalType": "address[]",
          "name": "accounts",
          "type": "address[]"
        },
        {
          "internalType": "uint256[]",
          "name": "ids",
          "type": "uint256[]"
        }
      ],
      "name": "balanceOfBatch",
      "outputs": [
        {
          "internalType": "uint256[]",
          "name": "",
          "type": "uint256[]"
        }
      ],
      "stateMutability": "view",
      "type": "function"
    },
    {
      "inputs": [
        {
          "internalType": "address",
          "name": "account",
          "type": "address"
        },
        {
          "internalType": "uint256",
          "name": "id",
          "type": "uint256"
        },
        {
          "internalType": "uint256",
          "name": "value",
          "type": "uint256"
        }
      ],
      "name": "burn",
      "outputs": [],
      "stateMutability": "nonpayable",
      "type": "function"
    },
    {
      "inputs": [
        {
          "internalType": "address",
          "name": "account",
          "type": "address"
        },
        {
          "internalType": "uint256[]",
          "name": "ids",
          "type": "uint256[]"
        },
        {
          "internalType": "uint256[]",
          "name": "values",
          "type": "uint256[]"
        }
      ],
      "name": "burnBatch",
      "outputs": [],
      "stateMutability": "nonpayable",
      "type": "function"
    },
    {
      "inputs": [
        {
          "internalType": "bytes32",
          "name": "role",
          "type": "bytes32"
        }
      ],
      "name": "getRoleAdmin",
      "outputs": [
        {
          "internalType": "bytes32",
          "name": "",
          "type": "bytes32"
        }
      ],
      "stateMutability": "view",
      "type": "function"
    },
    {
      "inputs": [
        {
          "internalType": "bytes32",
          "name": "role",
          "type": "bytes32"
        },
        {
          "internalType": "address",
          "name": "account",
          "type": "address"
        }
      ],
      "name": "grantRole",
      "outputs": [],
      "stateMutability": "nonpayable",
      "type": "function"
    },
    {
      "inputs": [
        {
          "internalType": "bytes32",
          "name": "role",
          "type": "bytes32"
        },
        {
          "internalType": "address",
          "name": "account",
          "type": "address"
        }
      ],
      "name": "hasRole",
      "outputs": [
        {
          "internalType": "bool",
          "name": "",
          "type": "bool"
        }
      ],
      "stateMutability": "view",
      "type": "function"
    },
    {
      "inputs": [],
      "name": "initialize",
      "outputs": [],
      "stateMutability": "nonpayable",
      "type": "function"
    },
    {
      "inputs": [
        {
          "internalType": "address",
          "name": "account",
          "type": "address"
        },
        {
          "internalType": "address",
          "name": "operator",
          "type": "address"
        }
      ],
      "name": "isApprovedForAll",
      "outputs": [
        {
          "internalType": "bool",
          "name": "",
          "type": "bool"
        }
      ],
      "stateMutability": "view",
      "type": "function"
    },
    {
      "inputs": [
        {
          "internalType": "address",
          "name": "account",
          "type": "address"
        },
        {
          "internalType": "uint256",
          "name": "amount",
          "type": "uint256"
        },
        {
          "internalType": "string",
          "name": "url",
          "type": "string"
        }
      ],
      "name": "mint",
      "outputs": [],
      "stateMutability": "nonpayable",
      "type": "function"
    },
    {
      "inputs": [
        {
          "internalType": "address",
          "name": "to",
          "type": "address"
        },
        {
          "internalType": "uint256[]",
          "name": "amounts",
          "type": "uint256[]"
        },
        {
          "internalType": "string[]",
          "name": "url",
          "type": "string[]"
        }
      ],
      "name": "mintBatch",
      "outputs": [],
      "stateMutability": "nonpayable",
      "type": "function"
    },
    {
      "inputs": [],
      "name": "pause",
      "outputs": [],
      "stateMutability": "nonpayable",
      "type": "function"
    },
    {
      "inputs": [],
      "name": "paused",
      "outputs": [
        {
          "internalType": "bool",
          "name": "",
          "type": "bool"
        }
      ],
      "stateMutability": "view",
      "type": "function"
    },
    {
      "inputs": [
        {
          "internalType": "bytes32",
          "name": "role",
          "type": "bytes32"
        },
        {
          "internalType": "address",
          "name": "account",
          "type": "address"
        }
      ],
      "name": "renounceRole",
      "outputs": [],
      "stateMutability": "nonpayable",
      "type": "function"
    },
    {
      "inputs": [
        {
          "internalType": "bytes32",
          "name": "role",
          "type": "bytes32"
        },
        {
          "internalType": "address",
          "name": "account",
          "type": "address"
        }
      ],
      "name": "revokeRole",
      "outputs": [],
      "stateMutability": "nonpayable",
      "type": "function"
    },
    {
      "inputs": [
        {
          "internalType": "address",
          "name": "from",
          "type": "address"
        },
        {
          "internalType": "address",
          "name": "to",
          "type": "address"
        },
        {
          "internalType": "uint256[]",
          "name": "ids",
          "type": "uint256[]"
        },
        {
          "internalType": "uint256[]",
          "name": "amounts",
          "type": "uint256[]"
        },
        {
          "internalType": "bytes",
          "name": "data",
          "type": "bytes"
        }
      ],
      "name": "safeBatchTransferFrom",
      "outputs": [],
      "stateMutability": "nonpayable",
      "type": "function"
    },
    {
      "inputs": [
        {
          "internalType": "address",
          "name": "from",
          "type": "address"
        },
        {
          "internalType": "address",
          "name": "to",
          "type": "address"
        },
        {
          "internalType": "uint256",
          "name": "id",
          "type": "uint256"
        },
        {
          "internalType": "uint256",
          "name": "amount",
          "type": "uint256"
        },
        {
          "internalType": "bytes",
          "name": "data",
          "type": "bytes"
        }
      ],
      "name": "safeTransferFrom",
      "outputs": [],
      "stateMutability": "nonpayable",
      "type": "function"
    },
    {
      "inputs": [
        {
          "internalType": "address",
          "name": "operator",
          "type": "address"
        },
        {
          "internalType": "bool",
          "name": "approved",
          "type": "bool"
        }
      ],
      "name": "setApprovalForAll",
      "outputs": [],
      "stateMutability": "nonpayable",
      "type": "function"
    },
    {
      "inputs": [
        {
          "internalType": "string",
          "name": "newuri",
          "type": "string"
        }
      ],
      "name": "setURI",
      "outputs": [],
      "stateMutability": "nonpayable",
      "type": "function"
    },
    {
      "inputs": [
        {
          "internalType": "address",
          "name": "to",
          "type": "address"
        }
      ],
      "name": "setupAdminRole",
      "outputs": [],
      "stateMutability": "nonpayable",
      "type": "function"
    },
    {
      "inputs": [
        {
          "internalType": "address",
          "name": "to",
          "type": "address"
        }
      ],
      "name": "setupMinterRole",
      "outputs": [],
      "stateMutability": "nonpayable",
      "type": "function"
    },
    {
      "inputs": [
        {
          "internalType": "bytes4",
          "name": "interfaceId",
          "type": "bytes4"
        }
      ],
      "name": "supportsInterface",
      "outputs": [
        {
          "internalType": "bool",
          "name": "",
          "type": "bool"
        }
      ],
      "stateMutability": "view",
      "type": "function"
    },
    {
      "inputs": [],
      "name": "unpause",
      "outputs": [],
      "stateMutability": "nonpayable",
      "type": "function"
    },
    {
      "inputs": [
        {
          "internalType": "uint256",
          "name": "id",
          "type": "uint256"
        }
      ],
      "name": "uri",
      "outputs": [
        {
          "internalType": "string",
          "name": "",
          "type": "string"
        }
      ],
      "stateMutability": "view",
      "type": "function"
    }
  ],
  "bytecode": "0x60806040523480156200001157600080fd5b50600060019054906101000a900460ff168062000039575060008054906101000a900460ff16155b6200007b576040517f08c379a000000000000000000000000000000000000000000000000000000000815260040162000072906200011c565b60405180910390fd5b60008060019054906101000a900460ff161590508015620000cc576001600060016101000a81548160ff02191690831515021790555060016000806101000a81548160ff0219169083151502179055505b8015620000ee5760008060016101000a81548160ff0219169083151502179055505b506200019e565b600062000104602e836200013e565b915062000111826200014f565b604082019050919050565b600060208201905081810360008301526200013781620000f5565b9050919050565b600082825260208201905092915050565b7f496e697469616c697a61626c653a20636f6e747261637420697320616c72656160008201527f647920696e697469616c697a6564000000000000000000000000000000000000602082015250565b61583780620001ae6000396000f3fe608060405234801561001057600080fd5b50600436106101c35760003560e01c80637f345710116100f9578063d539139311610097578063e985e9c511610071578063e985e9c5146104b4578063f242432a146104e4578063f5298aca14610500578063fcce83721461051c576101c3565b8063d53913931461045c578063d547741f1461047a578063e63ab1e914610496576101c3565b806391d14854116100d357806391d14854146103d6578063a217fddf14610406578063a22cb46514610424578063d3fc986414610440576101c3565b80637f345710146103a45780638129fc1c146103c25780638456cb59146103cc576101c3565b80632f2ff15d116101665780634e1273f4116101405780634e1273f41461031e5780635c975abb1461034e5780636b20c4541461036c57806372bbca5d14610388576101c3565b80632f2ff15d146102dc57806336568abe146102f85780633f4ba83a14610314576101c3565b80630e89341c116101a25780630e89341c14610244578063146d9ddc14610274578063248a9ca3146102905780632eb2c2d6146102c0576101c3565b8062fdd58e146101c857806301ffc9a7146101f857806302fe530514610228575b600080fd5b6101e260048036038101906101dd91906140b4565b610538565b6040516101ef9190614c62565b60405180910390f35b610212600480360381019061020d9190614277565b610602565b60405161021f91906149ca565b60405180910390f35b610242600480360381019061023d91906142c9565b610614565b005b61025e6004803603810190610259919061430a565b610653565b60405161026b9190614a00565b60405180910390f35b61028e60048036038101906102899190613f7a565b6106f9565b005b6102aa60048036038101906102a59190614212565b610920565b6040516102b791906149e5565b60405180910390f35b6102da60048036038101906102d59190613e2c565b610940565b005b6102f660048036038101906102f1919061423b565b6109e1565b005b610312600480360381019061030d919061423b565b610a0a565b005b61031c610a8d565b005b610338600480360381019061033391906141a6565b610aca565b6040516103459190614971565b60405180910390f35b610356610c7b565b60405161036391906149ca565b60405180910390f35b61038660048036038101906103819190613ff9565b610c92565b005b6103a2600480360381019061039d9190613dc7565b610d2f565b005b6103ac610d55565b6040516103b991906149e5565b60405180910390f35b6103ca610d79565b005b6103d4610f0d565b005b6103f060048036038101906103eb919061423b565b610f4a565b6040516103fd91906149ca565b60405180910390f35b61040e610fb5565b60405161041b91906149e5565b60405180910390f35b61043e60048036038101906104399190614078565b610fbc565b005b61045a600480360381019061045591906140f0565b610fd2565b005b610464611069565b60405161047191906149e5565b60405180910390f35b610494600480360381019061048f919061423b565b61108d565b005b61049e6110b6565b6040516104ab91906149e5565b60405180910390f35b6104ce60048036038101906104c99190613df0565b6110da565b6040516104db91906149ca565b60405180910390f35b6104fe60048036038101906104f99190613eeb565b61116e565b005b61051a60048036038101906105159190614157565b61120f565b005b61053660048036038101906105319190613dc7565b6112ac565b005b60008073ffffffffffffffffffffffffffffffffffffffff168373ffffffffffffffffffffffffffffffffffffffff1614156105a9576040517f08c379a00000000000000000000000000000000000000000000000000000000081526004016105a090614aa2565b60405180910390fd5b6065600083815260200190815260200160002060008473ffffffffffffffffffffffffffffffffffffffff1673ffffffffffffffffffffffffffffffffffffffff16815260200190815260200160002054905092915050565b600061060d826112ef565b9050919050565b7f7804d923f43a17d325d77e781528e0793b2edd9890ab45fc64efd7b4b427744c61064681610641611369565b611371565b61064f8261140e565b5050565b606061012d6000838152602001908152602001600020805461067490615011565b80601f01602080910402602001604051908101604052809291908181526020018280546106a090615011565b80156106ed5780601f106106c2576101008083540402835291602001916106ed565b820191906000526020600020905b8154815290600101906020018083116106d057829003601f168201915b50505050509050919050565b7f9f2df0fed2c77648de5860a4cc508cd0818c85b8b8a1ab4ceeef8d981c8956a661072b81610726611369565b611371565b6000835167ffffffffffffffff81111561076e577f4e487b7100000000000000000000000000000000000000000000000000000000600052604160045260246000fd5b60405190808252806020026020018201604052801561079c5781602001602082028036833780820191505090505b50905060005b84518110156108c2576107b661012e611428565b8282815181106107ef577f4e487b7100000000000000000000000000000000000000000000000000000000600052603260045260246000fd5b60200260200101818152505061080661012e611436565b83818151811061083f577f4e487b7100000000000000000000000000000000000000000000000000000000600052603260045260246000fd5b602002602001015161012d6000848481518110610885577f4e487b7100000000000000000000000000000000000000000000000000000000600052603260045260246000fd5b6020026020010151815260200190815260200160002090805190602001906108ae929190613a23565b5080806108ba90615074565b9150506107a2565b506108de8582866040518060200160405280600081525061144c565b7f9cf45b03c5edf18ebd03eee28f82685f5e31720cae1df83cf600b5eb50a95fa88582856040516109119392919061492c565b60405180910390a15050505050565b600060976000838152602001908152602001600020600101549050919050565b610948611369565b73ffffffffffffffffffffffffffffffffffffffff168573ffffffffffffffffffffffffffffffffffffffff16148061098e575061098d85610988611369565b6110da565b5b6109cd576040517f08c379a00000000000000000000000000000000000000000000000000000000081526004016109c490614b42565b60405180910390fd5b6109da85858585856116b7565b5050505050565b6109ea82610920565b6109fb816109f6611369565b611371565b610a058383611a1a565b505050565b610a12611369565b73ffffffffffffffffffffffffffffffffffffffff168173ffffffffffffffffffffffffffffffffffffffff1614610a7f576040517f08c379a0000000000000000000000000000000000000000000000000000000008152600401610a7690614c42565b60405180910390fd5b610a898282611afb565b5050565b7f65d7a28e3265b37a6474929f336521b332c1681b933f6cb9f3376673440d862a610abf81610aba611369565b611371565b610ac7611bdd565b50565b60608151835114610b10576040517f08c379a0000000000000000000000000000000000000000000000000000000008152600401610b0790614be2565b60405180910390fd5b6000835167ffffffffffffffff811115610b53577f4e487b7100000000000000000000000000000000000000000000000000000000600052604160045260246000fd5b604051908082528060200260200182016040528015610b815781602001602082028036833780820191505090505b50905060005b8451811015610c7057610c1a858281518110610bcc577f4e487b7100000000000000000000000000000000000000000000000000000000600052603260045260246000fd5b6020026020010151858381518110610c0d577f4e487b7100000000000000000000000000000000000000000000000000000000600052603260045260246000fd5b6020026020010151610538565b828281518110610c53577f4e487b7100000000000000000000000000000000000000000000000000000000600052603260045260246000fd5b60200260200101818152505080610c6990615074565b9050610b87565b508091505092915050565b600060c960009054906101000a900460ff16905090565b610c9a611369565b73ffffffffffffffffffffffffffffffffffffffff168373ffffffffffffffffffffffffffffffffffffffff161480610ce05750610cdf83610cda611369565b6110da565b5b610d1f576040517f08c379a0000000000000000000000000000000000000000000000000000000008152600401610d1690614ae2565b60405180910390fd5b610d2a838383611c7f565b505050565b6000801b610d4481610d3f611369565b611371565b610d516000801b83611f7e565b5050565b7f7804d923f43a17d325d77e781528e0793b2edd9890ab45fc64efd7b4b427744c81565b600060019054906101000a900460ff1680610d9f575060008054906101000a900460ff16155b610dde576040517f08c379a0000000000000000000000000000000000000000000000000000000008152600401610dd590614b62565b60405180910390fd5b60008060019054906101000a900460ff161590508015610e2e576001600060016101000a81548160ff02191690831515021790555060016000806101000a81548160ff0219169083151502179055505b610e4660405180602001604052806000815250611f8c565b610e4e61207f565b610e56612170565b610e5e612259565b610e6b6000801b33611f7e565b610e957f7804d923f43a17d325d77e781528e0793b2edd9890ab45fc64efd7b4b427744c33611f7e565b610ebf7f65d7a28e3265b37a6474929f336521b332c1681b933f6cb9f3376673440d862a33611f7e565b610ee97f9f2df0fed2c77648de5860a4cc508cd0818c85b8b8a1ab4ceeef8d981c8956a633611f7e565b8015610f0a5760008060016101000a81548160ff0219169083151502179055505b50565b7f65d7a28e3265b37a6474929f336521b332c1681b933f6cb9f3376673440d862a610f3f81610f3a611369565b611371565b610f4761234a565b50565b60006097600084815260200190815260200160002060000160008373ffffffffffffffffffffffffffffffffffffffff1673ffffffffffffffffffffffffffffffffffffffff16815260200190815260200160002060009054906101000a900460ff16905092915050565b6000801b81565b610fce610fc7611369565b83836123ed565b5050565b7f9f2df0fed2c77648de5860a4cc508cd0818c85b8b8a1ab4ceeef8d981c8956a661100481610fff611369565b611371565b600061101161012e611428565b905061101e61012e611436565b6110398582866040518060200160405280600081525061255a565b8261012d60008381526020019081526020016000209080519060200190611061929190613a23565b505050505050565b7f9f2df0fed2c77648de5860a4cc508cd0818c85b8b8a1ab4ceeef8d981c8956a681565b61109682610920565b6110a7816110a2611369565b611371565b6110b18383611afb565b505050565b7f65d7a28e3265b37a6474929f336521b332c1681b933f6cb9f3376673440d862a81565b6000606660008473ffffffffffffffffffffffffffffffffffffffff1673ffffffffffffffffffffffffffffffffffffffff16815260200190815260200160002060008373ffffffffffffffffffffffffffffffffffffffff1673ffffffffffffffffffffffffffffffffffffffff16815260200190815260200160002060009054906101000a900460ff16905092915050565b611176611369565b73ffffffffffffffffffffffffffffffffffffffff168573ffffffffffffffffffffffffffffffffffffffff1614806111bc57506111bb856111b6611369565b6110da565b5b6111fb576040517f08c379a00000000000000000000000000000000000000000000000000000000081526004016111f290614ae2565b60405180910390fd5b61120885858585856126f1565b5050505050565b611217611369565b73ffffffffffffffffffffffffffffffffffffffff168373ffffffffffffffffffffffffffffffffffffffff16148061125d575061125c83611257611369565b6110da565b5b61129c576040517f08c379a000000000000000000000000000000000000000000000000000000000815260040161129390614ae2565b60405180910390fd5b6112a7838383612976565b505050565b6000801b6112c1816112bc611369565b611371565b6112eb7f9f2df0fed2c77648de5860a4cc508cd0818c85b8b8a1ab4ceeef8d981c8956a683611f7e565b5050565b60007f7965db0b000000000000000000000000000000000000000000000000000000007bffffffffffffffffffffffffffffffffffffffffffffffffffffffff1916827bffffffffffffffffffffffffffffffffffffffffffffffffffffffff19161480611362575061136182612b95565b5b9050919050565b600033905090565b61137b8282610f4a565b61140a576113a08173ffffffffffffffffffffffffffffffffffffffff166014612c77565b6113ae8360001c6020612c77565b6040516020016113bf929190614815565b6040516020818303038152906040526040517f08c379a00000000000000000000000000000000000000000000000000000000081526004016114019190614a00565b60405180910390fd5b5050565b8060679080519060200190611424929190613a23565b5050565b600081600001549050919050565b6001816000016000828254019250508190555050565b600073ffffffffffffffffffffffffffffffffffffffff168473ffffffffffffffffffffffffffffffffffffffff1614156114bc576040517f08c379a00000000000000000000000000000000000000000000000000000000081526004016114b390614c22565b60405180910390fd5b8151835114611500576040517f08c379a00000000000000000000000000000000000000000000000000000000081526004016114f790614c02565b60405180910390fd5b600061150a611369565b905061151b81600087878787612f71565b60005b845181101561162157838181518110611560577f4e487b7100000000000000000000000000000000000000000000000000000000600052603260045260246000fd5b6020026020010151606560008784815181106115a5577f4e487b7100000000000000000000000000000000000000000000000000000000600052603260045260246000fd5b6020026020010151815260200190815260200160002060008873ffffffffffffffffffffffffffffffffffffffff1673ffffffffffffffffffffffffffffffffffffffff16815260200190815260200160002060008282546116079190614e77565b92505081905550808061161990615074565b91505061151e565b508473ffffffffffffffffffffffffffffffffffffffff16600073ffffffffffffffffffffffffffffffffffffffff168273ffffffffffffffffffffffffffffffffffffffff167f4a39dc06d4c0dbc64b70af90fd698a233a518aa5d07e595d983b8c0526c8f7fb8787604051611699929190614993565b60405180910390a46116b081600087878787612fcf565b5050505050565b81518351146116fb576040517f08c379a00000000000000000000000000000000000000000000000000000000081526004016116f290614c02565b60405180910390fd5b600073ffffffffffffffffffffffffffffffffffffffff168473ffffffffffffffffffffffffffffffffffffffff16141561176b576040517f08c379a000000000000000000000000000000000000000000000000000000000815260040161176290614b22565b60405180910390fd5b6000611775611369565b9050611785818787878787612f71565b60005b84518110156119855760008582815181106117cc577f4e487b7100000000000000000000000000000000000000000000000000000000600052603260045260246000fd5b602002602001015190506000858381518110611811577f4e487b7100000000000000000000000000000000000000000000000000000000600052603260045260246000fd5b6020026020010151905060006065600084815260200190815260200160002060008b73ffffffffffffffffffffffffffffffffffffffff1673ffffffffffffffffffffffffffffffffffffffff168152602001908152602001600020549050818110156118b3576040517f08c379a00000000000000000000000000000000000000000000000000000000081526004016118aa90614ba2565b60405180910390fd5b8181036065600085815260200190815260200160002060008c73ffffffffffffffffffffffffffffffffffffffff1673ffffffffffffffffffffffffffffffffffffffff16815260200190815260200160002081905550816065600085815260200190815260200160002060008b73ffffffffffffffffffffffffffffffffffffffff1673ffffffffffffffffffffffffffffffffffffffff168152602001908152602001600020600082825461196a9190614e77565b925050819055505050508061197e90615074565b9050611788565b508473ffffffffffffffffffffffffffffffffffffffff168673ffffffffffffffffffffffffffffffffffffffff168273ffffffffffffffffffffffffffffffffffffffff167f4a39dc06d4c0dbc64b70af90fd698a233a518aa5d07e595d983b8c0526c8f7fb87876040516119fc929190614993565b60405180910390a4611a12818787878787612fcf565b505050505050565b611a248282610f4a565b611af75760016097600084815260200190815260200160002060000160008373ffffffffffffffffffffffffffffffffffffffff1673ffffffffffffffffffffffffffffffffffffffff16815260200190815260200160002060006101000a81548160ff021916908315150217905550611a9c611369565b73ffffffffffffffffffffffffffffffffffffffff168173ffffffffffffffffffffffffffffffffffffffff16837f2f8788117e7eff1d82e926ec794901d17c78024a50270940304540a733656f0d60405160405180910390a45b5050565b611b058282610f4a565b15611bd95760006097600084815260200190815260200160002060000160008373ffffffffffffffffffffffffffffffffffffffff1673ffffffffffffffffffffffffffffffffffffffff16815260200190815260200160002060006101000a81548160ff021916908315150217905550611b7e611369565b73ffffffffffffffffffffffffffffffffffffffff168173ffffffffffffffffffffffffffffffffffffffff16837ff6391f5c32d9c69d2a47ea670b442974b53935d1edc7fd64eb21e047a839171b60405160405180910390a45b5050565b611be5610c7b565b611c24576040517f08c379a0000000000000000000000000000000000000000000000000000000008152600401611c1b90614a82565b60405180910390fd5b600060c960006101000a81548160ff0219169083151502179055507f5db9ee0a495bf2e6ff9c91a7834c1ba4fdd244a5e8aa4e537bd38aeae4b073aa611c68611369565b604051611c75919061484f565b60405180910390a1565b600073ffffffffffffffffffffffffffffffffffffffff168373ffffffffffffffffffffffffffffffffffffffff161415611cef576040517f08c379a0000000000000000000000000000000000000000000000000000000008152600401611ce690614b82565b60405180910390fd5b8051825114611d33576040517f08c379a0000000000000000000000000000000000000000000000000000000008152600401611d2a90614c02565b60405180910390fd5b6000611d3d611369565b9050611d5d81856000868660405180602001604052806000815250612f71565b60005b8351811015611ef8576000848281518110611da4577f4e487b7100000000000000000000000000000000000000000000000000000000600052603260045260246000fd5b602002602001015190506000848381518110611de9577f4e487b7100000000000000000000000000000000000000000000000000000000600052603260045260246000fd5b6020026020010151905060006065600084815260200190815260200160002060008973ffffffffffffffffffffffffffffffffffffffff1673ffffffffffffffffffffffffffffffffffffffff16815260200190815260200160002054905081811015611e8b576040517f08c379a0000000000000000000000000000000000000000000000000000000008152600401611e8290614ac2565b60405180910390fd5b8181036065600085815260200190815260200160002060008a73ffffffffffffffffffffffffffffffffffffffff1673ffffffffffffffffffffffffffffffffffffffff168152602001908152602001600020819055505050508080611ef090615074565b915050611d60565b50600073ffffffffffffffffffffffffffffffffffffffff168473ffffffffffffffffffffffffffffffffffffffff168273ffffffffffffffffffffffffffffffffffffffff167f4a39dc06d4c0dbc64b70af90fd698a233a518aa5d07e595d983b8c0526c8f7fb8686604051611f70929190614993565b60405180910390a450505050565b611f888282611a1a565b5050565b600060019054906101000a900460ff1680611fb2575060008054906101000a900460ff16155b611ff1576040517f08c379a0000000000000000000000000000000000000000000000000000000008152600401611fe890614b62565b60405180910390fd5b60008060019054906101000a900460ff161590508015612041576001600060016101000a81548160ff02191690831515021790555060016000806101000a81548160ff0219169083151502179055505b6120496131b6565b61205161328f565b61205a82613368565b801561207b5760008060016101000a81548160ff0219169083151502179055505b5050565b600060019054906101000a900460ff16806120a5575060008054906101000a900460ff16155b6120e4576040517f08c379a00000000000000000000000000000000000000000000000000000000081526004016120db90614b62565b60405180910390fd5b60008060019054906101000a900460ff161590508015612134576001600060016101000a81548160ff02191690831515021790555060016000806101000a81548160ff0219169083151502179055505b61213c6131b6565b61214461328f565b61214c61344b565b801561216d5760008060016101000a81548160ff0219169083151502179055505b50565b600060019054906101000a900460ff1680612196575060008054906101000a900460ff16155b6121d5576040517f08c379a00000000000000000000000000000000000000000000000000000000081526004016121cc90614b62565b60405180910390fd5b60008060019054906101000a900460ff161590508015612225576001600060016101000a81548160ff02191690831515021790555060016000806101000a81548160ff0219169083151502179055505b61222d6131b6565b612235613524565b80156122565760008060016101000a81548160ff0219169083151502179055505b50565b600060019054906101000a900460ff168061227f575060008054906101000a900460ff16155b6122be576040517f08c379a00000000000000000000000000000000000000000000000000000000081526004016122b590614b62565b60405180910390fd5b60008060019054906101000a900460ff16159050801561230e576001600060016101000a81548160ff02191690831515021790555060016000806101000a81548160ff0219169083151502179055505b6123166131b6565b61231e61328f565b612326613618565b80156123475760008060016101000a81548160ff0219169083151502179055505b50565b612352610c7b565b15612392576040517f08c379a000000000000000000000000000000000000000000000000000000000815260040161238990614b02565b60405180910390fd5b600160c960006101000a81548160ff0219169083151502179055507f62e78cea01bee320cd4e420270b5ea74000d11b0c9f74754ebdbfc544b05a2586123d6611369565b6040516123e3919061484f565b60405180910390a1565b8173ffffffffffffffffffffffffffffffffffffffff168373ffffffffffffffffffffffffffffffffffffffff16141561245c576040517f08c379a000000000000000000000000000000000000000000000000000000000815260040161245390614bc2565b60405180910390fd5b80606660008573ffffffffffffffffffffffffffffffffffffffff1673ffffffffffffffffffffffffffffffffffffffff16815260200190815260200160002060008473ffffffffffffffffffffffffffffffffffffffff1673ffffffffffffffffffffffffffffffffffffffff16815260200190815260200160002060006101000a81548160ff0219169083151502179055508173ffffffffffffffffffffffffffffffffffffffff168373ffffffffffffffffffffffffffffffffffffffff167f17307eab39ab6107e8899845ad3d59bd9653f200f220920489ca2b5937696c318360405161254d91906149ca565b60405180910390a3505050565b600073ffffffffffffffffffffffffffffffffffffffff168473ffffffffffffffffffffffffffffffffffffffff1614156125ca576040517f08c379a00000000000000000000000000000000000000000000000000000000081526004016125c190614c22565b60405180910390fd5b60006125d4611369565b90506125f5816000876125e6886136f1565b6125ef886136f1565b87612f71565b826065600086815260200190815260200160002060008773ffffffffffffffffffffffffffffffffffffffff1673ffffffffffffffffffffffffffffffffffffffff16815260200190815260200160002060008282546126559190614e77565b925050819055508473ffffffffffffffffffffffffffffffffffffffff16600073ffffffffffffffffffffffffffffffffffffffff168273ffffffffffffffffffffffffffffffffffffffff167fc3d58168c5ae7397731d063d5bbf3d657854427343f4c083240f7aacaa2d0f6287876040516126d3929190614c7d565b60405180910390a46126ea816000878787876137b7565b5050505050565b600073ffffffffffffffffffffffffffffffffffffffff168473ffffffffffffffffffffffffffffffffffffffff161415612761576040517f08c379a000000000000000000000000000000000000000000000000000000000815260040161275890614b22565b60405180910390fd5b600061276b611369565b905061278b81878761277c886136f1565b612785886136f1565b87612f71565b60006065600086815260200190815260200160002060008873ffffffffffffffffffffffffffffffffffffffff1673ffffffffffffffffffffffffffffffffffffffff16815260200190815260200160002054905083811015612823576040517f08c379a000000000000000000000000000000000000000000000000000000000815260040161281a90614ba2565b60405180910390fd5b8381036065600087815260200190815260200160002060008973ffffffffffffffffffffffffffffffffffffffff1673ffffffffffffffffffffffffffffffffffffffff16815260200190815260200160002081905550836065600087815260200190815260200160002060008873ffffffffffffffffffffffffffffffffffffffff1673ffffffffffffffffffffffffffffffffffffffff16815260200190815260200160002060008282546128da9190614e77565b925050819055508573ffffffffffffffffffffffffffffffffffffffff168773ffffffffffffffffffffffffffffffffffffffff168373ffffffffffffffffffffffffffffffffffffffff167fc3d58168c5ae7397731d063d5bbf3d657854427343f4c083240f7aacaa2d0f628888604051612957929190614c7d565b60405180910390a461296d8288888888886137b7565b50505050505050565b600073ffffffffffffffffffffffffffffffffffffffff168373ffffffffffffffffffffffffffffffffffffffff1614156129e6576040517f08c379a00000000000000000000000000000000000000000000000000000000081526004016129dd90614b82565b60405180910390fd5b60006129f0611369565b9050612a2081856000612a02876136f1565b612a0b876136f1565b60405180602001604052806000815250612f71565b60006065600085815260200190815260200160002060008673ffffffffffffffffffffffffffffffffffffffff1673ffffffffffffffffffffffffffffffffffffffff16815260200190815260200160002054905082811015612ab8576040517f08c379a0000000000000000000000000000000000000000000000000000000008152600401612aaf90614ac2565b60405180910390fd5b8281036065600086815260200190815260200160002060008773ffffffffffffffffffffffffffffffffffffffff1673ffffffffffffffffffffffffffffffffffffffff16815260200190815260200160002081905550600073ffffffffffffffffffffffffffffffffffffffff168573ffffffffffffffffffffffffffffffffffffffff168373ffffffffffffffffffffffffffffffffffffffff167fc3d58168c5ae7397731d063d5bbf3d657854427343f4c083240f7aacaa2d0f628787604051612b86929190614c7d565b60405180910390a45050505050565b60007fd9b67a26000000000000000000000000000000000000000000000000000000007bffffffffffffffffffffffffffffffffffffffffffffffffffffffff1916827bffffffffffffffffffffffffffffffffffffffffffffffffffffffff19161480612c6057507f0e89341c000000000000000000000000000000000000000000000000000000007bffffffffffffffffffffffffffffffffffffffffffffffffffffffff1916827bffffffffffffffffffffffffffffffffffffffffffffffffffffffff1916145b80612c705750612c6f8261399e565b5b9050919050565b606060006002836002612c8a9190614ecd565b612c949190614e77565b67ffffffffffffffff811115612cd3577f4e487b7100000000000000000000000000000000000000000000000000000000600052604160045260246000fd5b6040519080825280601f01601f191660200182016040528015612d055781602001600182028036833780820191505090505b5090507f300000000000000000000000000000000000000000000000000000000000000081600081518110612d63577f4e487b7100000000000000000000000000000000000000000000000000000000600052603260045260246000fd5b60200101907effffffffffffffffffffffffffffffffffffffffffffffffffffffffffffff1916908160001a9053507f780000000000000000000000000000000000000000000000000000000000000081600181518110612ded577f4e487b7100000000000000000000000000000000000000000000000000000000600052603260045260246000fd5b60200101907effffffffffffffffffffffffffffffffffffffffffffffffffffffffffffff1916908160001a90535060006001846002612e2d9190614ecd565b612e379190614e77565b90505b6001811115612f23577f3031323334353637383961626364656600000000000000000000000000000000600f861660108110612e9f577f4e487b7100000000000000000000000000000000000000000000000000000000600052603260045260246000fd5b1a60f81b828281518110612edc577f4e487b7100000000000000000000000000000000000000000000000000000000600052603260045260246000fd5b60200101907effffffffffffffffffffffffffffffffffffffffffffffffffffffffffffff1916908160001a905350600485901c945080612f1c90614fe7565b9050612e3a565b5060008414612f67576040517f08c379a0000000000000000000000000000000000000000000000000000000008152600401612f5e90614a42565b60405180910390fd5b8091505092915050565b612f79610c7b565b15612fb9576040517f08c379a0000000000000000000000000000000000000000000000000000000008152600401612fb090614b02565b60405180910390fd5b612fc7868686868686613a08565b505050505050565b612fee8473ffffffffffffffffffffffffffffffffffffffff16613a10565b156131ae578373ffffffffffffffffffffffffffffffffffffffff1663bc197c8187878686866040518663ffffffff1660e01b815260040161303495949392919061486a565b602060405180830381600087803b15801561304e57600080fd5b505af192505050801561307f57506040513d601f19601f8201168201806040525081019061307c91906142a0565b60015b6131255761308b61514a565b806308c379a014156130e857506130a06156f8565b806130ab57506130ea565b806040517f08c379a00000000000000000000000000000000000000000000000000000000081526004016130df9190614a00565b60405180910390fd5b505b6040517f08c379a000000000000000000000000000000000000000000000000000000000815260040161311c90614a22565b60405180910390fd5b63bc197c8160e01b7bffffffffffffffffffffffffffffffffffffffffffffffffffffffff1916817bffffffffffffffffffffffffffffffffffffffffffffffffffffffff1916146131ac576040517f08c379a00000000000000000000000000000000000000000000000000000000081526004016131a390614a62565b60405180910390fd5b505b505050505050565b600060019054906101000a900460ff16806131dc575060008054906101000a900460ff16155b61321b576040517f08c379a000000000000000000000000000000000000000000000000000000000815260040161321290614b62565b60405180910390fd5b60008060019054906101000a900460ff16159050801561326b576001600060016101000a81548160ff02191690831515021790555060016000806101000a81548160ff0219169083151502179055505b801561328c5760008060016101000a81548160ff0219169083151502179055505b50565b600060019054906101000a900460ff16806132b5575060008054906101000a900460ff16155b6132f4576040517f08c379a00000000000000000000000000000000000000000000000000000000081526004016132eb90614b62565b60405180910390fd5b60008060019054906101000a900460ff161590508015613344576001600060016101000a81548160ff02191690831515021790555060016000806101000a81548160ff0219169083151502179055505b80156133655760008060016101000a81548160ff0219169083151502179055505b50565b600060019054906101000a900460ff168061338e575060008054906101000a900460ff16155b6133cd576040517f08c379a00000000000000000000000000000000000000000000000000000000081526004016133c490614b62565b60405180910390fd5b60008060019054906101000a900460ff16159050801561341d576001600060016101000a81548160ff02191690831515021790555060016000806101000a81548160ff0219169083151502179055505b6134268261140e565b80156134475760008060016101000a81548160ff0219169083151502179055505b5050565b600060019054906101000a900460ff1680613471575060008054906101000a900460ff16155b6134b0576040517f08c379a00000000000000000000000000000000000000000000000000000000081526004016134a790614b62565b60405180910390fd5b60008060019054906101000a900460ff161590508015613500576001600060016101000a81548160ff02191690831515021790555060016000806101000a81548160ff0219169083151502179055505b80156135215760008060016101000a81548160ff0219169083151502179055505b50565b600060019054906101000a900460ff168061354a575060008054906101000a900460ff16155b613589576040517f08c379a000000000000000000000000000000000000000000000000000000000815260040161358090614b62565b60405180910390fd5b60008060019054906101000a900460ff1615905080156135d9576001600060016101000a81548160ff02191690831515021790555060016000806101000a81548160ff0219169083151502179055505b600060c960006101000a81548160ff02191690831515021790555080156136155760008060016101000a81548160ff0219169083151502179055505b50565b600060019054906101000a900460ff168061363e575060008054906101000a900460ff16155b61367d576040517f08c379a000000000000000000000000000000000000000000000000000000000815260040161367490614b62565b60405180910390fd5b60008060019054906101000a900460ff1615905080156136cd576001600060016101000a81548160ff02191690831515021790555060016000806101000a81548160ff0219169083151502179055505b80156136ee5760008060016101000a81548160ff0219169083151502179055505b50565b60606000600167ffffffffffffffff811115613736577f4e487b7100000000000000000000000000000000000000000000000000000000600052604160045260246000fd5b6040519080825280602002602001820160405280156137645781602001602082028036833780820191505090505b50905082816000815181106137a2577f4e487b7100000000000000000000000000000000000000000000000000000000600052603260045260246000fd5b60200260200101818152505080915050919050565b6137d68473ffffffffffffffffffffffffffffffffffffffff16613a10565b15613996578373ffffffffffffffffffffffffffffffffffffffff1663f23a6e6187878686866040518663ffffffff1660e01b815260040161381c9594939291906148d2565b602060405180830381600087803b15801561383657600080fd5b505af192505050801561386757506040513d601f19601f8201168201806040525081019061386491906142a0565b60015b61390d5761387361514a565b806308c379a014156138d057506138886156f8565b8061389357506138d2565b806040517f08c379a00000000000000000000000000000000000000000000000000000000081526004016138c79190614a00565b60405180910390fd5b505b6040517f08c379a000000000000000000000000000000000000000000000000000000000815260040161390490614a22565b60405180910390fd5b63f23a6e6160e01b7bffffffffffffffffffffffffffffffffffffffffffffffffffffffff1916817bffffffffffffffffffffffffffffffffffffffffffffffffffffffff191614613994576040517f08c379a000000000000000000000000000000000000000000000000000000000815260040161398b90614a62565b60405180910390fd5b505b505050505050565b60007f01ffc9a7000000000000000000000000000000000000000000000000000000007bffffffffffffffffffffffffffffffffffffffffffffffffffffffff1916827bffffffffffffffffffffffffffffffffffffffffffffffffffffffff1916149050919050565b505050505050565b600080823b905060008111915050919050565b828054613a2f90615011565b90600052602060002090601f016020900481019282613a515760008555613a98565b82601f10613a6a57805160ff1916838001178555613a98565b82800160010185558215613a98579182015b82811115613a97578251825591602001919060010190613a7c565b5b509050613aa59190613aa9565b5090565b5b80821115613ac2576000816000905550600101613aaa565b5090565b6000613ad9613ad484614ccb565b614ca6565b90508083825260208201905082856020860282011115613af857600080fd5b60005b85811015613b285781613b0e8882613c77565b845260208401935060208301925050600181019050613afb565b5050509392505050565b6000613b45613b4084614cf7565b614ca6565b9050808382526020820190508260005b85811015613b855781358501613b6b8882613d88565b845260208401935060208301925050600181019050613b55565b5050509392505050565b6000613ba2613b9d84614d23565b614ca6565b90508083825260208201905082856020860282011115613bc157600080fd5b60005b85811015613bf15781613bd78882613db2565b845260208401935060208301925050600181019050613bc4565b5050509392505050565b6000613c0e613c0984614d4f565b614ca6565b905082815260208101848484011115613c2657600080fd5b613c31848285614fa5565b509392505050565b6000613c4c613c4784614d80565b614ca6565b905082815260208101848484011115613c6457600080fd5b613c6f848285614fa5565b509392505050565b600081359050613c868161578e565b92915050565b600082601f830112613c9d57600080fd5b8135613cad848260208601613ac6565b91505092915050565b600082601f830112613cc757600080fd5b8135613cd7848260208601613b32565b91505092915050565b600082601f830112613cf157600080fd5b8135613d01848260208601613b8f565b91505092915050565b600081359050613d19816157a5565b92915050565b600081359050613d2e816157bc565b92915050565b600081359050613d43816157d3565b92915050565b600081519050613d58816157d3565b92915050565b600082601f830112613d6f57600080fd5b8135613d7f848260208601613bfb565b91505092915050565b600082601f830112613d9957600080fd5b8135613da9848260208601613c39565b91505092915050565b600081359050613dc1816157ea565b92915050565b600060208284031215613dd957600080fd5b6000613de784828501613c77565b91505092915050565b60008060408385031215613e0357600080fd5b6000613e1185828601613c77565b9250506020613e2285828601613c77565b9150509250929050565b600080600080600060a08688031215613e4457600080fd5b6000613e5288828901613c77565b9550506020613e6388828901613c77565b945050604086013567ffffffffffffffff811115613e8057600080fd5b613e8c88828901613ce0565b935050606086013567ffffffffffffffff811115613ea957600080fd5b613eb588828901613ce0565b925050608086013567ffffffffffffffff811115613ed257600080fd5b613ede88828901613d5e565b9150509295509295909350565b600080600080600060a08688031215613f0357600080fd5b6000613f1188828901613c77565b9550506020613f2288828901613c77565b9450506040613f3388828901613db2565b9350506060613f4488828901613db2565b925050608086013567ffffffffffffffff811115613f6157600080fd5b613f6d88828901613d5e565b9150509295509295909350565b600080600060608486031215613f8f57600080fd5b6000613f9d86828701613c77565b935050602084013567ffffffffffffffff811115613fba57600080fd5b613fc686828701613ce0565b925050604084013567ffffffffffffffff811115613fe357600080fd5b613fef86828701613cb6565b9150509250925092565b60008060006060848603121561400e57600080fd5b600061401c86828701613c77565b935050602084013567ffffffffffffffff81111561403957600080fd5b61404586828701613ce0565b925050604084013567ffffffffffffffff81111561406257600080fd5b61406e86828701613ce0565b9150509250925092565b6000806040838503121561408b57600080fd5b600061409985828601613c77565b92505060206140aa85828601613d0a565b9150509250929050565b600080604083850312156140c757600080fd5b60006140d585828601613c77565b92505060206140e685828601613db2565b9150509250929050565b60008060006060848603121561410557600080fd5b600061411386828701613c77565b935050602061412486828701613db2565b925050604084013567ffffffffffffffff81111561414157600080fd5b61414d86828701613d88565b9150509250925092565b60008060006060848603121561416c57600080fd5b600061417a86828701613c77565b935050602061418b86828701613db2565b925050604061419c86828701613db2565b9150509250925092565b600080604083850312156141b957600080fd5b600083013567ffffffffffffffff8111156141d357600080fd5b6141df85828601613c8c565b925050602083013567ffffffffffffffff8111156141fc57600080fd5b61420885828601613ce0565b9150509250929050565b60006020828403121561422457600080fd5b600061423284828501613d1f565b91505092915050565b6000806040838503121561424e57600080fd5b600061425c85828601613d1f565b925050602061426d85828601613c77565b9150509250929050565b60006020828403121561428957600080fd5b600061429784828501613d34565b91505092915050565b6000602082840312156142b257600080fd5b60006142c084828501613d49565b91505092915050565b6000602082840312156142db57600080fd5b600082013567ffffffffffffffff8111156142f557600080fd5b61430184828501613d88565b91505092915050565b60006020828403121561431c57600080fd5b600061432a84828501613db2565b91505092915050565b600061433f8383614498565b905092915050565b600061435383836147f7565b60208301905092915050565b61436881614f27565b82525050565b600061437982614dd1565b6143838185614e17565b93508360208202850161439585614db1565b8060005b858110156143d157848403895281516143b28582614333565b94506143bd83614dfd565b925060208a01995050600181019050614399565b50829750879550505050505092915050565b60006143ee82614ddc565b6143f88185614e28565b935061440383614dc1565b8060005b8381101561443457815161441b8882614347565b975061442683614e0a565b925050600181019050614407565b5085935050505092915050565b61444a81614f39565b82525050565b61445981614f45565b82525050565b600061446a82614de7565b6144748185614e39565b9350614484818560208601614fb4565b61448d8161516c565b840191505092915050565b60006144a382614df2565b6144ad8185614e4a565b93506144bd818560208601614fb4565b6144c68161516c565b840191505092915050565b60006144dc82614df2565b6144e68185614e5b565b93506144f6818560208601614fb4565b6144ff8161516c565b840191505092915050565b600061451582614df2565b61451f8185614e6c565b935061452f818560208601614fb4565b80840191505092915050565b6000614548603483614e5b565b91506145538261518a565b604082019050919050565b600061456b602083614e5b565b9150614576826151d9565b602082019050919050565b600061458e602883614e5b565b915061459982615202565b604082019050919050565b60006145b1601483614e5b565b91506145bc82615251565b602082019050919050565b60006145d4602b83614e5b565b91506145df8261527a565b604082019050919050565b60006145f7602483614e5b565b9150614602826152c9565b604082019050919050565b600061461a602983614e5b565b915061462582615318565b604082019050919050565b600061463d601083614e5b565b915061464882615367565b602082019050919050565b6000614660602583614e5b565b915061466b82615390565b604082019050919050565b6000614683603283614e5b565b915061468e826153df565b604082019050919050565b60006146a6602e83614e5b565b91506146b18261542e565b604082019050919050565b60006146c9602383614e5b565b91506146d48261547d565b604082019050919050565b60006146ec602a83614e5b565b91506146f7826154cc565b604082019050919050565b600061470f601783614e6c565b915061471a8261551b565b601782019050919050565b6000614732602983614e5b565b915061473d82615544565b604082019050919050565b6000614755602983614e5b565b915061476082615593565b604082019050919050565b6000614778602883614e5b565b9150614783826155e2565b604082019050919050565b600061479b602183614e5b565b91506147a682615631565b604082019050919050565b60006147be601183614e6c565b91506147c982615680565b601182019050919050565b60006147e1602f83614e5b565b91506147ec826156a9565b604082019050919050565b61480081614f9b565b82525050565b61480f81614f9b565b82525050565b600061482082614702565b915061482c828561450a565b9150614837826147b1565b9150614843828461450a565b91508190509392505050565b6000602082019050614864600083018461435f565b92915050565b600060a08201905061487f600083018861435f565b61488c602083018761435f565b818103604083015261489e81866143e3565b905081810360608301526148b281856143e3565b905081810360808301526148c6818461445f565b90509695505050505050565b600060a0820190506148e7600083018861435f565b6148f4602083018761435f565b6149016040830186614806565b61490e6060830185614806565b8181036080830152614920818461445f565b90509695505050505050565b6000606082019050614941600083018661435f565b818103602083015261495381856143e3565b90508181036040830152614967818461436e565b9050949350505050565b6000602082019050818103600083015261498b81846143e3565b905092915050565b600060408201905081810360008301526149ad81856143e3565b905081810360208301526149c181846143e3565b90509392505050565b60006020820190506149df6000830184614441565b92915050565b60006020820190506149fa6000830184614450565b92915050565b60006020820190508181036000830152614a1a81846144d1565b905092915050565b60006020820190508181036000830152614a3b8161453b565b9050919050565b60006020820190508181036000830152614a5b8161455e565b9050919050565b60006020820190508181036000830152614a7b81614581565b9050919050565b60006020820190508181036000830152614a9b816145a4565b9050919050565b60006020820190508181036000830152614abb816145c7565b9050919050565b60006020820190508181036000830152614adb816145ea565b9050919050565b60006020820190508181036000830152614afb8161460d565b9050919050565b60006020820190508181036000830152614b1b81614630565b9050919050565b60006020820190508181036000830152614b3b81614653565b9050919050565b60006020820190508181036000830152614b5b81614676565b9050919050565b60006020820190508181036000830152614b7b81614699565b9050919050565b60006020820190508181036000830152614b9b816146bc565b9050919050565b60006020820190508181036000830152614bbb816146df565b9050919050565b60006020820190508181036000830152614bdb81614725565b9050919050565b60006020820190508181036000830152614bfb81614748565b9050919050565b60006020820190508181036000830152614c1b8161476b565b9050919050565b60006020820190508181036000830152614c3b8161478e565b9050919050565b60006020820190508181036000830152614c5b816147d4565b9050919050565b6000602082019050614c776000830184614806565b92915050565b6000604082019050614c926000830185614806565b614c9f6020830184614806565b9392505050565b6000614cb0614cc1565b9050614cbc8282615043565b919050565b6000604051905090565b600067ffffffffffffffff821115614ce657614ce561511b565b5b602082029050602081019050919050565b600067ffffffffffffffff821115614d1257614d1161511b565b5b602082029050602081019050919050565b600067ffffffffffffffff821115614d3e57614d3d61511b565b5b602082029050602081019050919050565b600067ffffffffffffffff821115614d6a57614d6961511b565b5b614d738261516c565b9050602081019050919050565b600067ffffffffffffffff821115614d9b57614d9a61511b565b5b614da48261516c565b9050602081019050919050565b6000819050602082019050919050565b6000819050602082019050919050565b600081519050919050565b600081519050919050565b600081519050919050565b600081519050919050565b6000602082019050919050565b6000602082019050919050565b600082825260208201905092915050565b600082825260208201905092915050565b600082825260208201905092915050565b600082825260208201905092915050565b600082825260208201905092915050565b600081905092915050565b6000614e8282614f9b565b9150614e8d83614f9b565b9250827fffffffffffffffffffffffffffffffffffffffffffffffffffffffffffffffff03821115614ec257614ec16150bd565b5b828201905092915050565b6000614ed882614f9b565b9150614ee383614f9b565b9250817fffffffffffffffffffffffffffffffffffffffffffffffffffffffffffffffff0483118215151615614f1c57614f1b6150bd565b5b828202905092915050565b6000614f3282614f7b565b9050919050565b60008115159050919050565b6000819050919050565b60007fffffffff0000000000000000000000000000000000000000000000000000000082169050919050565b600073ffffffffffffffffffffffffffffffffffffffff82169050919050565b6000819050919050565b82818337600083830152505050565b60005b83811015614fd2578082015181840152602081019050614fb7565b83811115614fe1576000848401525b50505050565b6000614ff282614f9b565b91506000821415615006576150056150bd565b5b600182039050919050565b6000600282049050600182168061502957607f821691505b6020821081141561503d5761503c6150ec565b5b50919050565b61504c8261516c565b810181811067ffffffffffffffff8211171561506b5761506a61511b565b5b80604052505050565b600061507f82614f9b565b91507fffffffffffffffffffffffffffffffffffffffffffffffffffffffffffffffff8214156150b2576150b16150bd565b5b600182019050919050565b7f4e487b7100000000000000000000000000000000000000000000000000000000600052601160045260246000fd5b7f4e487b7100000000000000000000000000000000000000000000000000000000600052602260045260246000fd5b7f4e487b7100000000000000000000000000000000000000000000000000000000600052604160045260246000fd5b600060033d11156151695760046000803e61516660005161517d565b90505b90565b6000601f19601f8301169050919050565b60008160e01c9050919050565b7f455243313135353a207472616e7366657220746f206e6f6e204552433131353560008201527f526563656976657220696d706c656d656e746572000000000000000000000000602082015250565b7f537472696e67733a20686578206c656e67746820696e73756666696369656e74600082015250565b7f455243313135353a204552433131353552656365697665722072656a6563746560008201527f6420746f6b656e73000000000000000000000000000000000000000000000000602082015250565b7f5061757361626c653a206e6f7420706175736564000000000000000000000000600082015250565b7f455243313135353a2062616c616e636520717565727920666f7220746865207a60008201527f65726f2061646472657373000000000000000000000000000000000000000000602082015250565b7f455243313135353a206275726e20616d6f756e7420657863656564732062616c60008201527f616e636500000000000000000000000000000000000000000000000000000000602082015250565b7f455243313135353a2063616c6c6572206973206e6f74206f776e6572206e6f7260008201527f20617070726f7665640000000000000000000000000000000000000000000000602082015250565b7f5061757361626c653a2070617573656400000000000000000000000000000000600082015250565b7f455243313135353a207472616e7366657220746f20746865207a65726f20616460008201527f6472657373000000000000000000000000000000000000000000000000000000602082015250565b7f455243313135353a207472616e736665722063616c6c6572206973206e6f742060008201527f6f776e6572206e6f7220617070726f7665640000000000000000000000000000602082015250565b7f496e697469616c697a61626c653a20636f6e747261637420697320616c72656160008201527f647920696e697469616c697a6564000000000000000000000000000000000000602082015250565b7f455243313135353a206275726e2066726f6d20746865207a65726f206164647260008201527f6573730000000000000000000000000000000000000000000000000000000000602082015250565b7f455243313135353a20696e73756666696369656e742062616c616e636520666f60008201527f72207472616e7366657200000000000000000000000000000000000000000000602082015250565b7f416363657373436f6e74726f6c3a206163636f756e7420000000000000000000600082015250565b7f455243313135353a2073657474696e6720617070726f76616c2073746174757360008201527f20666f722073656c660000000000000000000000000000000000000000000000602082015250565b7f455243313135353a206163636f756e747320616e6420696473206c656e67746860008201527f206d69736d617463680000000000000000000000000000000000000000000000602082015250565b7f455243313135353a2069647320616e6420616d6f756e7473206c656e6774682060008201527f6d69736d61746368000000000000000000000000000000000000000000000000602082015250565b7f455243313135353a206d696e7420746f20746865207a65726f2061646472657360008201527f7300000000000000000000000000000000000000000000000000000000000000602082015250565b7f206973206d697373696e6720726f6c6520000000000000000000000000000000600082015250565b7f416363657373436f6e74726f6c3a2063616e206f6e6c792072656e6f756e636560008201527f20726f6c657320666f722073656c660000000000000000000000000000000000602082015250565b600060443d10156157085761578b565b615710614cc1565b60043d036004823e80513d602482011167ffffffffffffffff8211171561573857505061578b565b808201805167ffffffffffffffff811115615756575050505061578b565b80602083010160043d03850181111561577357505050505061578b565b61578282602001850186615043565b82955050505050505b90565b61579781614f27565b81146157a257600080fd5b50565b6157ae81614f39565b81146157b957600080fd5b50565b6157c581614f45565b81146157d057600080fd5b50565b6157dc81614f4f565b81146157e757600080fd5b50565b6157f381614f9b565b81146157fe57600080fd5b5056fea26469706673582212204edb55ec40ffd4d6d16849183414abd991af278eb5d78ca28d2b6bc61d9bfdc964736f6c63430008030033",
  "linkReferences": {},
  "deployedLinkReferences": {}
}