{
  "_format": "hh-sol-artifact-1",
  "contractName": "ScaleCapacity",
  "sourceName": "contracts/ScaleCapacity.sol",
  "abi": [
    {
      "inputs": [],
      "stateMutability": "nonpayable",
      "type": "constructor"
    },
    {
      "anonymous": false,
      "inputs": [
        {
          "indexed": true,
          "internalType": "address",
          "name": "account",
          "type": "address"
        },
        {
          "indexed": true,
          "internalType": "address",
          "name": "operator",
          "type": "address"
        },
        {
          "indexed": false,
          "internalType": "bool",
          "name": "approved",
          "type": "bool"
        }
      ],
      "name": "ApprovalForAll",
      "type": "event"
    },
    {
      "anonymous": false,
      "inputs": [
        {
          "indexed": false,
          "internalType": "address",
          "name": "to",
          "type": "address"
        },
        {
          "indexed": false,
          "internalType": "uint256[]",
          "name": "tokenIDs",
          "type": "uint256[]"
        },
        {
          "indexed": false,
          "internalType": "string[]",
          "name": "urls",
          "type": "string[]"
        }
      ],
      "name": "MintBatchEvent",
      "type": "event"
    },
    {
      "anonymous": false,
      "inputs": [
        {
          "indexed": false,
          "internalType": "address",
          "name": "account",
          "type": "address"
        }
      ],
      "name": "Paused",
      "type": "event"
    },
    {
      "anonymous": false,
      "inputs": [
        {
          "indexed": true,
          "internalType": "bytes32",
          "name": "role",
          "type": "bytes32"
        },
        {
          "indexed": true,
          "internalType": "bytes32",
          "name": "previousAdminRole",
          "type": "bytes32"
        },
        {
          "indexed": true,
          "internalType": "bytes32",
          "name": "newAdminRole",
          "type": "bytes32"
        }
      ],
      "name": "RoleAdminChanged",
      "type": "event"
    },
    {
      "anonymous": false,
      "inputs": [
        {
          "indexed": true,
          "internalType": "bytes32",
          "name": "role",
          "type": "bytes32"
        },
        {
          "indexed": true,
          "internalType": "address",
          "name": "account",
          "type": "address"
        },
        {
          "indexed": true,
          "internalType": "address",
          "name": "sender",
          "type": "address"
        }
      ],
      "name": "RoleGranted",
      "type": "event"
    },
    {
      "anonymous": false,
      "inputs": [
        {
          "indexed": true,
          "internalType": "bytes32",
          "name": "role",
          "type": "bytes32"
        },
        {
          "indexed": true,
          "internalType": "address",
          "name": "account",
          "type": "address"
        },
        {
          "indexed": true,
          "internalType": "address",
          "name": "sender",
          "type": "address"
        }
      ],
      "name": "RoleRevoked",
      "type": "event"
    },
    {
      "anonymous": false,
      "inputs": [
        {
          "indexed": true,
          "internalType": "address",
          "name": "operator",
          "type": "address"
        },
        {
          "indexed": true,
          "internalType": "address",
          "name": "from",
          "type": "address"
        },
        {
          "indexed": true,
          "internalType": "address",
          "name": "to",
          "type": "address"
        },
        {
          "indexed": false,
          "internalType": "uint256[]",
          "name": "ids",
          "type": "uint256[]"
        },
        {
          "indexed": false,
          "internalType": "uint256[]",
          "name": "values",
          "type": "uint256[]"
        }
      ],
      "name": "TransferBatch",
      "type": "event"
    },
    {
      "anonymous": false,
      "inputs": [
        {
          "indexed": true,
          "internalType": "address",
          "name": "operator",
          "type": "address"
        },
        {
          "indexed": true,
          "internalType": "address",
          "name": "from",
          "type": "address"
        },
        {
          "indexed": true,
          "internalType": "address",
          "name": "to",
          "type": "address"
        },
        {
          "indexed": false,
          "internalType": "uint256",
          "name": "id",
          "type": "uint256"
        },
        {
          "indexed": false,
          "internalType": "uint256",
          "name": "value",
          "type": "uint256"
        }
      ],
      "name": "TransferSingle",
      "type": "event"
    },
    {
      "anonymous": false,
      "inputs": [
        {
          "indexed": false,
          "internalType": "string",
          "name": "value",
          "type": "string"
        },
        {
          "indexed": true,
          "internalType": "uint256",
          "name": "id",
          "type": "uint256"
        }
      ],
      "name": "URI",
      "type": "event"
    },
    {
      "anonymous": false,
      "inputs": [
        {
          "indexed": false,
          "internalType": "address",
          "name": "account",
          "type": "address"
        }
      ],
      "name": "Unpaused",
      "type": "event"
    },
    {
      "inputs": [],
      "name": "DEFAULT_ADMIN_ROLE",
      "outputs": [
        {
          "internalType": "bytes32",
          "name": "",
          "type": "bytes32"
        }
      ],
      "stateMutability": "view",
      "type": "function"
    },
    {
      "inputs": [],
      "name": "MINTER_ROLE",
      "outputs": [
        {
          "internalType": "bytes32",
          "name": "",
          "type": "bytes32"
        }
      ],
      "stateMutability": "view",
      "type": "function"
    },
    {
      "inputs": [],
      "name": "PAUSER_ROLE",
      "outputs": [
        {
          "internalType": "bytes32",
          "name": "",
          "type": "bytes32"
        }
      ],
      "stateMutability": "view",
      "type": "function"
    },
    {
      "inputs": [],
      "name": "URI_SETTER_ROLE",
      "outputs": [
        {
          "internalType": "bytes32",
          "name": "",
          "type": "bytes32"
        }
      ],
      "stateMutability": "view",
      "type": "function"
    },
    {
      "inputs": [
        {
          "internalType": "address",
          "name": "account",
          "type": "address"
        },
        {
          "internalType": "uint256",
          "name": "id",
          "type": "uint256"
        }
      ],
      "name": "balanceOf",
      "outputs": [
        {
          "internalType": "uint256",
          "name": "",
          "type": "uint256"
        }
      ],
      "stateMutability": "view",
      "type": "function"
    },
    {
      "inputs": [
        {
          "internalType": "address[]",
          "name": "accounts",
          "type": "address[]"
        },
        {
          "internalType": "uint256[]",
          "name": "ids",
          "type": "uint256[]"
        }
      ],
      "name": "balanceOfBatch",
      "outputs": [
        {
          "internalType": "uint256[]",
          "name": "",
          "type": "uint256[]"
        }
      ],
      "stateMutability": "view",
      "type": "function"
    },
    {
      "inputs": [
        {
          "internalType": "address",
          "name": "account",
          "type": "address"
        },
        {
          "internalType": "uint256",
          "name": "id",
          "type": "uint256"
        },
        {
          "internalType": "uint256",
          "name": "value",
          "type": "uint256"
        }
      ],
      "name": "burn",
      "outputs": [],
      "stateMutability": "nonpayable",
      "type": "function"
    },
    {
      "inputs": [
        {
          "internalType": "address",
          "name": "account",
          "type": "address"
        },
        {
          "internalType": "uint256[]",
          "name": "ids",
          "type": "uint256[]"
        },
        {
          "internalType": "uint256[]",
          "name": "values",
          "type": "uint256[]"
        }
      ],
      "name": "burnBatch",
      "outputs": [],
      "stateMutability": "nonpayable",
      "type": "function"
    },
    {
      "inputs": [
        {
          "internalType": "bytes32",
          "name": "role",
          "type": "bytes32"
        }
      ],
      "name": "getRoleAdmin",
      "outputs": [
        {
          "internalType": "bytes32",
          "name": "",
          "type": "bytes32"
        }
      ],
      "stateMutability": "view",
      "type": "function"
    },
    {
      "inputs": [
        {
          "internalType": "bytes32",
          "name": "role",
          "type": "bytes32"
        },
        {
          "internalType": "address",
          "name": "account",
          "type": "address"
        }
      ],
      "name": "grantRole",
      "outputs": [],
      "stateMutability": "nonpayable",
      "type": "function"
    },
    {
      "inputs": [
        {
          "internalType": "bytes32",
          "name": "role",
          "type": "bytes32"
        },
        {
          "internalType": "address",
          "name": "account",
          "type": "address"
        }
      ],
      "name": "hasRole",
      "outputs": [
        {
          "internalType": "bool",
          "name": "",
          "type": "bool"
        }
      ],
      "stateMutability": "view",
      "type": "function"
    },
    {
      "inputs": [],
      "name": "initialize",
      "outputs": [],
      "stateMutability": "nonpayable",
      "type": "function"
    },
    {
      "inputs": [
        {
          "internalType": "address",
          "name": "account",
          "type": "address"
        },
        {
          "internalType": "address",
          "name": "operator",
          "type": "address"
        }
      ],
      "name": "isApprovedForAll",
      "outputs": [
        {
          "internalType": "bool",
          "name": "",
          "type": "bool"
        }
      ],
      "stateMutability": "view",
      "type": "function"
    },
    {
      "inputs": [
        {
          "internalType": "address",
          "name": "account",
          "type": "address"
        },
        {
          "internalType": "uint256",
          "name": "amount",
          "type": "uint256"
        },
        {
          "internalType": "string",
          "name": "url",
          "type": "string"
        },
        {
          "internalType": "uint256",
          "name": "price",
          "type": "uint256"
        }
      ],
      "name": "mint",
      "outputs": [],
      "stateMutability": "nonpayable",
      "type": "function"
    },
    {
      "inputs": [
        {
          "internalType": "address",
          "name": "to",
          "type": "address"
        },
        {
          "internalType": "uint256[]",
          "name": "amounts",
          "type": "uint256[]"
        },
        {
          "internalType": "string[]",
          "name": "url",
          "type": "string[]"
        },
        {
          "internalType": "uint256[]",
          "name": "price",
          "type": "uint256[]"
        }
      ],
      "name": "mintBatch",
      "outputs": [],
      "stateMutability": "nonpayable",
      "type": "function"
    },
    {
      "inputs": [],
      "name": "pause",
      "outputs": [],
      "stateMutability": "nonpayable",
      "type": "function"
    },
    {
      "inputs": [],
      "name": "paused",
      "outputs": [
        {
          "internalType": "bool",
          "name": "",
          "type": "bool"
        }
      ],
      "stateMutability": "view",
      "type": "function"
    },
    {
      "inputs": [
        {
          "internalType": "uint256",
          "name": "tokenID",
          "type": "uint256"
        },
        {
          "internalType": "uint256",
          "name": "amount",
          "type": "uint256"
        }
      ],
      "name": "purchase",
      "outputs": [],
      "stateMutability": "payable",
      "type": "function"
    },
    {
      "inputs": [
        {
          "internalType": "bytes32",
          "name": "role",
          "type": "bytes32"
        },
        {
          "internalType": "address",
          "name": "account",
          "type": "address"
        }
      ],
      "name": "renounceRole",
      "outputs": [],
      "stateMutability": "nonpayable",
      "type": "function"
    },
    {
      "inputs": [
        {
          "internalType": "bytes32",
          "name": "role",
          "type": "bytes32"
        },
        {
          "internalType": "address",
          "name": "account",
          "type": "address"
        }
      ],
      "name": "revokeRole",
      "outputs": [],
      "stateMutability": "nonpayable",
      "type": "function"
    },
    {
      "inputs": [
        {
          "internalType": "address",
          "name": "from",
          "type": "address"
        },
        {
          "internalType": "address",
          "name": "to",
          "type": "address"
        },
        {
          "internalType": "uint256[]",
          "name": "ids",
          "type": "uint256[]"
        },
        {
          "internalType": "uint256[]",
          "name": "amounts",
          "type": "uint256[]"
        },
        {
          "internalType": "bytes",
          "name": "data",
          "type": "bytes"
        }
      ],
      "name": "safeBatchTransferFrom",
      "outputs": [],
      "stateMutability": "nonpayable",
      "type": "function"
    },
    {
      "inputs": [
        {
          "internalType": "address",
          "name": "from",
          "type": "address"
        },
        {
          "internalType": "address",
          "name": "to",
          "type": "address"
        },
        {
          "internalType": "uint256",
          "name": "id",
          "type": "uint256"
        },
        {
          "internalType": "uint256",
          "name": "amount",
          "type": "uint256"
        },
        {
          "internalType": "bytes",
          "name": "data",
          "type": "bytes"
        }
      ],
      "name": "safeTransferFrom",
      "outputs": [],
      "stateMutability": "nonpayable",
      "type": "function"
    },
    {
      "inputs": [
        {
          "internalType": "address",
          "name": "operator",
          "type": "address"
        },
        {
          "internalType": "bool",
          "name": "approved",
          "type": "bool"
        }
      ],
      "name": "setApprovalForAll",
      "outputs": [],
      "stateMutability": "nonpayable",
      "type": "function"
    },
    {
      "inputs": [
        {
          "internalType": "string",
          "name": "newuri",
          "type": "string"
        }
      ],
      "name": "setURI",
      "outputs": [],
      "stateMutability": "nonpayable",
      "type": "function"
    },
    {
      "inputs": [
        {
          "internalType": "address",
          "name": "to",
          "type": "address"
        }
      ],
      "name": "setupAdminRole",
      "outputs": [],
      "stateMutability": "nonpayable",
      "type": "function"
    },
    {
      "inputs": [
        {
          "internalType": "address",
          "name": "to",
          "type": "address"
        }
      ],
      "name": "setupMinterRole",
      "outputs": [],
      "stateMutability": "nonpayable",
      "type": "function"
    },
    {
      "inputs": [
        {
          "internalType": "bytes4",
          "name": "interfaceId",
          "type": "bytes4"
        }
      ],
      "name": "supportsInterface",
      "outputs": [
        {
          "internalType": "bool",
          "name": "",
          "type": "bool"
        }
      ],
      "stateMutability": "view",
      "type": "function"
    },
    {
      "inputs": [],
      "name": "unpause",
      "outputs": [],
      "stateMutability": "nonpayable",
      "type": "function"
    },
    {
      "inputs": [
        {
          "internalType": "uint256",
          "name": "id",
          "type": "uint256"
        }
      ],
      "name": "uri",
      "outputs": [
        {
          "internalType": "string",
          "name": "",
          "type": "string"
        }
      ],
      "stateMutability": "view",
      "type": "function"
    }
  ],
  "bytecode": "0x60806040523480156200001157600080fd5b50600060019054906101000a900460ff168062000039575060008054906101000a900460ff16155b6200007b576040517f08c379a000000000000000000000000000000000000000000000000000000000815260040162000072906200011c565b60405180910390fd5b60008060019054906101000a900460ff161590508015620000cc576001600060016101000a81548160ff02191690831515021790555060016000806101000a81548160ff0219169083151502179055505b8015620000ee5760008060016101000a81548160ff0219169083151502179055505b506200019e565b600062000104602e836200013e565b915062000111826200014f565b604082019050919050565b600060208201905081810360008301526200013781620000f5565b9050919050565b600082825260208201905092915050565b7f496e697469616c697a61626c653a20636f6e747261637420697320616c72656160008201527f647920696e697469616c697a6564000000000000000000000000000000000000602082015250565b615ce880620001ae6000396000f3fe6080604052600436106101c15760003560e01c806372bbca5d116100f7578063d539139311610095578063f242432a11610064578063f242432a1461061a578063f5298aca14610643578063f5305bf31461066c578063fcce837214610695576101c1565b8063d53913931461055e578063d547741f14610589578063e63ab1e9146105b2578063e985e9c5146105dd576101c1565b80638456cb59116100d15780638456cb59146104b657806391d14854146104cd578063a217fddf1461050a578063a22cb46514610535576101c1565b806372bbca5d1461044b5780637f345710146104745780638129fc1c1461049f576101c1565b80632f2ff15d116101645780634e1273f41161013e5780634e1273f41461039e5780635c975abb146103db5780636b20c4541461040657806370876c981461042f576101c1565b80632f2ff15d1461033557806336568abe1461035e5780633f4ba83a14610387576101c1565b806308a8d7aa116101a057806308a8d7aa146102695780630e89341c14610292578063248a9ca3146102cf5780632eb2c2d61461030c576101c1565b8062fdd58e146101c657806301ffc9a71461020357806302fe530514610240575b600080fd5b3480156101d257600080fd5b506101ed60048036038101906101e891906143a7565b6106be565b6040516101fa91906150ac565b60405180910390f35b34801561020f57600080fd5b5061022a6004803603810190610225919061457e565b610788565b6040516102379190614df4565b60405180910390f35b34801561024c57600080fd5b50610267600480360381019061026291906145d0565b61079a565b005b34801561027557600080fd5b50610290600480360381019061028b91906143e3565b6107d9565b005b34801561029e57600080fd5b506102b960048036038101906102b49190614611565b6108c6565b6040516102c69190614e2a565b60405180910390f35b3480156102db57600080fd5b506102f660048036038101906102f19190614519565b610905565b6040516103039190614e0f565b60405180910390f35b34801561031857600080fd5b50610333600480360381019061032e91906140f3565b610925565b005b34801561034157600080fd5b5061035c60048036038101906103579190614542565b6109c6565b005b34801561036a57600080fd5b5061038560048036038101906103809190614542565b6109ef565b005b34801561039357600080fd5b5061039c610a72565b005b3480156103aa57600080fd5b506103c560048036038101906103c091906144ad565b610aaf565b6040516103d29190614d9b565b60405180910390f35b3480156103e757600080fd5b506103f0610c60565b6040516103fd9190614df4565b60405180910390f35b34801561041257600080fd5b5061042d600480360381019061042891906142ec565b610c77565b005b6104496004803603810190610444919061463a565b610d14565b005b34801561045757600080fd5b50610472600480360381019061046d919061408e565b610dd0565b005b34801561048057600080fd5b50610489610df6565b6040516104969190614e0f565b60405180910390f35b3480156104ab57600080fd5b506104b4610e1a565b005b3480156104c257600080fd5b506104cb610fae565b005b3480156104d957600080fd5b506104f460048036038101906104ef9190614542565b610feb565b6040516105019190614df4565b60405180910390f35b34801561051657600080fd5b5061051f611056565b60405161052c9190614e0f565b60405180910390f35b34801561054157600080fd5b5061055c6004803603810190610557919061436b565b61105d565b005b34801561056a57600080fd5b50610573611073565b6040516105809190614e0f565b60405180910390f35b34801561059557600080fd5b506105b060048036038101906105ab9190614542565b611097565b005b3480156105be57600080fd5b506105c76110c0565b6040516105d49190614e0f565b60405180910390f35b3480156105e957600080fd5b5061060460048036038101906105ff91906140b7565b6110e4565b6040516106119190614df4565b60405180910390f35b34801561062657600080fd5b50610641600480360381019061063c91906141b2565b611178565b005b34801561064f57600080fd5b5061066a6004803603810190610665919061445e565b611219565b005b34801561067857600080fd5b50610693600480360381019061068e9190614241565b6112b6565b005b3480156106a157600080fd5b506106bc60048036038101906106b7919061408e565b611573565b005b60008073ffffffffffffffffffffffffffffffffffffffff168373ffffffffffffffffffffffffffffffffffffffff16141561072f576040517f08c379a000000000000000000000000000000000000000000000000000000000815260040161072690614ecc565b60405180910390fd5b6065600083815260200190815260200160002060008473ffffffffffffffffffffffffffffffffffffffff1673ffffffffffffffffffffffffffffffffffffffff16815260200190815260200160002054905092915050565b6000610793826115b6565b9050919050565b7f7804d923f43a17d325d77e781528e0793b2edd9890ab45fc64efd7b4b427744c6107cc816107c7611630565b611638565b6107d5826116d5565b5050565b7f9f2df0fed2c77648de5860a4cc508cd0818c85b8b8a1ab4ceeef8d981c8956a661080b81610806611630565b611638565b600061081861012e6116ef565b905061082561012e6116fd565b600061012d6000838152602001908152602001600020905061085887838860405180602001604052806000815250611713565b83816001018190555084816000019080519060200190610879929190613cea565b50868160020160006101000a81548173ffffffffffffffffffffffffffffffffffffffff021916908373ffffffffffffffffffffffffffffffffffffffff16021790555050505050505050565b606061012d60008381526020019081526020016000206000016040516020016108ef9190614c1d565b6040516020818303038152906040529050919050565b600060976000838152602001908152602001600020600101549050919050565b61092d611630565b73ffffffffffffffffffffffffffffffffffffffff168573ffffffffffffffffffffffffffffffffffffffff16148061097357506109728561096d611630565b6110e4565b5b6109b2576040517f08c379a00000000000000000000000000000000000000000000000000000000081526004016109a990614f8c565b60405180910390fd5b6109bf85858585856118aa565b5050505050565b6109cf82610905565b6109e0816109db611630565b611638565b6109ea8383611c0d565b505050565b6109f7611630565b73ffffffffffffffffffffffffffffffffffffffff168173ffffffffffffffffffffffffffffffffffffffff1614610a64576040517f08c379a0000000000000000000000000000000000000000000000000000000008152600401610a5b9061508c565b60405180910390fd5b610a6e8282611cee565b5050565b7f65d7a28e3265b37a6474929f336521b332c1681b933f6cb9f3376673440d862a610aa481610a9f611630565b611638565b610aac611dd0565b50565b60608151835114610af5576040517f08c379a0000000000000000000000000000000000000000000000000000000008152600401610aec9061502c565b60405180910390fd5b6000835167ffffffffffffffff811115610b38577f4e487b7100000000000000000000000000000000000000000000000000000000600052604160045260246000fd5b604051908082528060200260200182016040528015610b665781602001602082028036833780820191505090505b50905060005b8451811015610c5557610bff858281518110610bb1577f4e487b7100000000000000000000000000000000000000000000000000000000600052603260045260246000fd5b6020026020010151858381518110610bf2577f4e487b7100000000000000000000000000000000000000000000000000000000600052603260045260246000fd5b60200260200101516106be565b828281518110610c38577f4e487b7100000000000000000000000000000000000000000000000000000000600052603260045260246000fd5b60200260200101818152505080610c4e906154d3565b9050610b6c565b508091505092915050565b600060c960009054906101000a900460ff16905090565b610c7f611630565b73ffffffffffffffffffffffffffffffffffffffff168373ffffffffffffffffffffffffffffffffffffffff161480610cc55750610cc483610cbf611630565b6110e4565b5b610d04576040517f08c379a0000000000000000000000000000000000000000000000000000000008152600401610cfb90614f0c565b60405180910390fd5b610d0f838383611e72565b505050565b8061012d600084815260200190815260200160002060010154610d37919061532c565b341015610d79576040517f08c379a0000000000000000000000000000000000000000000000000000000008152600401610d7090614f2c565b60405180910390fd5b610dcc61012d600084815260200190815260200160002060020160009054906101000a900473ffffffffffffffffffffffffffffffffffffffff1633848460405180602001604052806000815250612171565b5050565b6000801b610de581610de0611630565b611638565b610df26000801b836123f6565b5050565b7f7804d923f43a17d325d77e781528e0793b2edd9890ab45fc64efd7b4b427744c81565b600060019054906101000a900460ff1680610e40575060008054906101000a900460ff16155b610e7f576040517f08c379a0000000000000000000000000000000000000000000000000000000008152600401610e7690614fac565b60405180910390fd5b60008060019054906101000a900460ff161590508015610ecf576001600060016101000a81548160ff02191690831515021790555060016000806101000a81548160ff0219169083151502179055505b610ee760405180602001604052806000815250612404565b610eef6124f7565b610ef76125e8565b610eff6126d1565b610f0c6000801b336123f6565b610f367f7804d923f43a17d325d77e781528e0793b2edd9890ab45fc64efd7b4b427744c336123f6565b610f607f65d7a28e3265b37a6474929f336521b332c1681b933f6cb9f3376673440d862a336123f6565b610f8a7f9f2df0fed2c77648de5860a4cc508cd0818c85b8b8a1ab4ceeef8d981c8956a6336123f6565b8015610fab5760008060016101000a81548160ff0219169083151502179055505b50565b7f65d7a28e3265b37a6474929f336521b332c1681b933f6cb9f3376673440d862a610fe081610fdb611630565b611638565b610fe86127c2565b50565b60006097600084815260200190815260200160002060000160008373ffffffffffffffffffffffffffffffffffffffff1673ffffffffffffffffffffffffffffffffffffffff16815260200190815260200160002060009054906101000a900460ff16905092915050565b6000801b81565b61106f611068611630565b8383612865565b5050565b7f9f2df0fed2c77648de5860a4cc508cd0818c85b8b8a1ab4ceeef8d981c8956a681565b6110a082610905565b6110b1816110ac611630565b611638565b6110bb8383611cee565b505050565b7f65d7a28e3265b37a6474929f336521b332c1681b933f6cb9f3376673440d862a81565b6000606660008473ffffffffffffffffffffffffffffffffffffffff1673ffffffffffffffffffffffffffffffffffffffff16815260200190815260200160002060008373ffffffffffffffffffffffffffffffffffffffff1673ffffffffffffffffffffffffffffffffffffffff16815260200190815260200160002060009054906101000a900460ff16905092915050565b611180611630565b73ffffffffffffffffffffffffffffffffffffffff168573ffffffffffffffffffffffffffffffffffffffff1614806111c657506111c5856111c0611630565b6110e4565b5b611205576040517f08c379a00000000000000000000000000000000000000000000000000000000081526004016111fc90614f0c565b60405180910390fd5b6112128585858585612171565b5050505050565b611221611630565b73ffffffffffffffffffffffffffffffffffffffff168373ffffffffffffffffffffffffffffffffffffffff161480611267575061126683611261611630565b6110e4565b5b6112a6576040517f08c379a000000000000000000000000000000000000000000000000000000000815260040161129d90614f0c565b60405180910390fd5b6112b18383836129d2565b505050565b7f9f2df0fed2c77648de5860a4cc508cd0818c85b8b8a1ab4ceeef8d981c8956a66112e8816112e3611630565b611638565b6000845167ffffffffffffffff81111561132b577f4e487b7100000000000000000000000000000000000000000000000000000000600052604160045260246000fd5b6040519080825280602002602001820160405280156113595781602001602082028036833780820191505090505b50905060005b85518110156115145761137361012e6116ef565b8282815181106113ac577f4e487b7100000000000000000000000000000000000000000000000000000000600052603260045260246000fd5b6020026020010181815250506113c361012e6116fd565b600061012d6000848481518110611403577f4e487b7100000000000000000000000000000000000000000000000000000000600052603260045260246000fd5b602002602001015181526020019081526020016000209050848281518110611454577f4e487b7100000000000000000000000000000000000000000000000000000000600052603260045260246000fd5b6020026020010151816001018190555085828151811061149d577f4e487b7100000000000000000000000000000000000000000000000000000000600052603260045260246000fd5b60200260200101518160000190805190602001906114bc929190613cea565b50878160020160006101000a81548173ffffffffffffffffffffffffffffffffffffffff021916908373ffffffffffffffffffffffffffffffffffffffff16021790555050808061150c906154d3565b91505061135f565b5061153086828760405180602001604052806000815250612bf1565b7f9cf45b03c5edf18ebd03eee28f82685f5e31720cae1df83cf600b5eb50a95fa886828660405161156393929190614d56565b60405180910390a1505050505050565b6000801b61158881611583611630565b611638565b6115b27f9f2df0fed2c77648de5860a4cc508cd0818c85b8b8a1ab4ceeef8d981c8956a6836123f6565b5050565b60007f7965db0b000000000000000000000000000000000000000000000000000000007bffffffffffffffffffffffffffffffffffffffffffffffffffffffff1916827bffffffffffffffffffffffffffffffffffffffffffffffffffffffff19161480611629575061162882612e5c565b5b9050919050565b600033905090565b6116428282610feb565b6116d1576116678173ffffffffffffffffffffffffffffffffffffffff166014612f3e565b6116758360001c6020612f3e565b604051602001611686929190614c3f565b6040516020818303038152906040526040517f08c379a00000000000000000000000000000000000000000000000000000000081526004016116c89190614e2a565b60405180910390fd5b5050565b80606790805190602001906116eb929190613cea565b5050565b600081600001549050919050565b6001816000016000828254019250508190555050565b600073ffffffffffffffffffffffffffffffffffffffff168473ffffffffffffffffffffffffffffffffffffffff161415611783576040517f08c379a000000000000000000000000000000000000000000000000000000000815260040161177a9061506c565b60405180910390fd5b600061178d611630565b90506117ae8160008761179f88613238565b6117a888613238565b876132fe565b826065600086815260200190815260200160002060008773ffffffffffffffffffffffffffffffffffffffff1673ffffffffffffffffffffffffffffffffffffffff168152602001908152602001600020600082825461180e91906152d6565b925050819055508473ffffffffffffffffffffffffffffffffffffffff16600073ffffffffffffffffffffffffffffffffffffffff168273ffffffffffffffffffffffffffffffffffffffff167fc3d58168c5ae7397731d063d5bbf3d657854427343f4c083240f7aacaa2d0f62878760405161188c9291906150c7565b60405180910390a46118a38160008787878761335c565b5050505050565b81518351146118ee576040517f08c379a00000000000000000000000000000000000000000000000000000000081526004016118e59061504c565b60405180910390fd5b600073ffffffffffffffffffffffffffffffffffffffff168473ffffffffffffffffffffffffffffffffffffffff16141561195e576040517f08c379a000000000000000000000000000000000000000000000000000000000815260040161195590614f6c565b60405180910390fd5b6000611968611630565b90506119788187878787876132fe565b60005b8451811015611b785760008582815181106119bf577f4e487b7100000000000000000000000000000000000000000000000000000000600052603260045260246000fd5b602002602001015190506000858381518110611a04577f4e487b7100000000000000000000000000000000000000000000000000000000600052603260045260246000fd5b6020026020010151905060006065600084815260200190815260200160002060008b73ffffffffffffffffffffffffffffffffffffffff1673ffffffffffffffffffffffffffffffffffffffff16815260200190815260200160002054905081811015611aa6576040517f08c379a0000000000000000000000000000000000000000000000000000000008152600401611a9d90614fec565b60405180910390fd5b8181036065600085815260200190815260200160002060008c73ffffffffffffffffffffffffffffffffffffffff1673ffffffffffffffffffffffffffffffffffffffff16815260200190815260200160002081905550816065600085815260200190815260200160002060008b73ffffffffffffffffffffffffffffffffffffffff1673ffffffffffffffffffffffffffffffffffffffff1681526020019081526020016000206000828254611b5d91906152d6565b9250508190555050505080611b71906154d3565b905061197b565b508473ffffffffffffffffffffffffffffffffffffffff168673ffffffffffffffffffffffffffffffffffffffff168273ffffffffffffffffffffffffffffffffffffffff167f4a39dc06d4c0dbc64b70af90fd698a233a518aa5d07e595d983b8c0526c8f7fb8787604051611bef929190614dbd565b60405180910390a4611c05818787878787613543565b505050505050565b611c178282610feb565b611cea5760016097600084815260200190815260200160002060000160008373ffffffffffffffffffffffffffffffffffffffff1673ffffffffffffffffffffffffffffffffffffffff16815260200190815260200160002060006101000a81548160ff021916908315150217905550611c8f611630565b73ffffffffffffffffffffffffffffffffffffffff168173ffffffffffffffffffffffffffffffffffffffff16837f2f8788117e7eff1d82e926ec794901d17c78024a50270940304540a733656f0d60405160405180910390a45b5050565b611cf88282610feb565b15611dcc5760006097600084815260200190815260200160002060000160008373ffffffffffffffffffffffffffffffffffffffff1673ffffffffffffffffffffffffffffffffffffffff16815260200190815260200160002060006101000a81548160ff021916908315150217905550611d71611630565b73ffffffffffffffffffffffffffffffffffffffff168173ffffffffffffffffffffffffffffffffffffffff16837ff6391f5c32d9c69d2a47ea670b442974b53935d1edc7fd64eb21e047a839171b60405160405180910390a45b5050565b611dd8610c60565b611e17576040517f08c379a0000000000000000000000000000000000000000000000000000000008152600401611e0e90614eac565b60405180910390fd5b600060c960006101000a81548160ff0219169083151502179055507f5db9ee0a495bf2e6ff9c91a7834c1ba4fdd244a5e8aa4e537bd38aeae4b073aa611e5b611630565b604051611e689190614c79565b60405180910390a1565b600073ffffffffffffffffffffffffffffffffffffffff168373ffffffffffffffffffffffffffffffffffffffff161415611ee2576040517f08c379a0000000000000000000000000000000000000000000000000000000008152600401611ed990614fcc565b60405180910390fd5b8051825114611f26576040517f08c379a0000000000000000000000000000000000000000000000000000000008152600401611f1d9061504c565b60405180910390fd5b6000611f30611630565b9050611f50818560008686604051806020016040528060008152506132fe565b60005b83518110156120eb576000848281518110611f97577f4e487b7100000000000000000000000000000000000000000000000000000000600052603260045260246000fd5b602002602001015190506000848381518110611fdc577f4e487b7100000000000000000000000000000000000000000000000000000000600052603260045260246000fd5b6020026020010151905060006065600084815260200190815260200160002060008973ffffffffffffffffffffffffffffffffffffffff1673ffffffffffffffffffffffffffffffffffffffff1681526020019081526020016000205490508181101561207e576040517f08c379a000000000000000000000000000000000000000000000000000000000815260040161207590614eec565b60405180910390fd5b8181036065600085815260200190815260200160002060008a73ffffffffffffffffffffffffffffffffffffffff1673ffffffffffffffffffffffffffffffffffffffff1681526020019081526020016000208190555050505080806120e3906154d3565b915050611f53565b50600073ffffffffffffffffffffffffffffffffffffffff168473ffffffffffffffffffffffffffffffffffffffff168273ffffffffffffffffffffffffffffffffffffffff167f4a39dc06d4c0dbc64b70af90fd698a233a518aa5d07e595d983b8c0526c8f7fb8686604051612163929190614dbd565b60405180910390a450505050565b600073ffffffffffffffffffffffffffffffffffffffff168473ffffffffffffffffffffffffffffffffffffffff1614156121e1576040517f08c379a00000000000000000000000000000000000000000000000000000000081526004016121d890614f6c565b60405180910390fd5b60006121eb611630565b905061220b8187876121fc88613238565b61220588613238565b876132fe565b60006065600086815260200190815260200160002060008873ffffffffffffffffffffffffffffffffffffffff1673ffffffffffffffffffffffffffffffffffffffff168152602001908152602001600020549050838110156122a3576040517f08c379a000000000000000000000000000000000000000000000000000000000815260040161229a90614fec565b60405180910390fd5b8381036065600087815260200190815260200160002060008973ffffffffffffffffffffffffffffffffffffffff1673ffffffffffffffffffffffffffffffffffffffff16815260200190815260200160002081905550836065600087815260200190815260200160002060008873ffffffffffffffffffffffffffffffffffffffff1673ffffffffffffffffffffffffffffffffffffffff168152602001908152602001600020600082825461235a91906152d6565b925050819055508573ffffffffffffffffffffffffffffffffffffffff168773ffffffffffffffffffffffffffffffffffffffff168373ffffffffffffffffffffffffffffffffffffffff167fc3d58168c5ae7397731d063d5bbf3d657854427343f4c083240f7aacaa2d0f6288886040516123d79291906150c7565b60405180910390a46123ed82888888888861335c565b50505050505050565b6124008282611c0d565b5050565b600060019054906101000a900460ff168061242a575060008054906101000a900460ff16155b612469576040517f08c379a000000000000000000000000000000000000000000000000000000000815260040161246090614fac565b60405180910390fd5b60008060019054906101000a900460ff1615905080156124b9576001600060016101000a81548160ff02191690831515021790555060016000806101000a81548160ff0219169083151502179055505b6124c161372a565b6124c9613803565b6124d2826138dc565b80156124f35760008060016101000a81548160ff0219169083151502179055505b5050565b600060019054906101000a900460ff168061251d575060008054906101000a900460ff16155b61255c576040517f08c379a000000000000000000000000000000000000000000000000000000000815260040161255390614fac565b60405180910390fd5b60008060019054906101000a900460ff1615905080156125ac576001600060016101000a81548160ff02191690831515021790555060016000806101000a81548160ff0219169083151502179055505b6125b461372a565b6125bc613803565b6125c46139bf565b80156125e55760008060016101000a81548160ff0219169083151502179055505b50565b600060019054906101000a900460ff168061260e575060008054906101000a900460ff16155b61264d576040517f08c379a000000000000000000000000000000000000000000000000000000000815260040161264490614fac565b60405180910390fd5b60008060019054906101000a900460ff16159050801561269d576001600060016101000a81548160ff02191690831515021790555060016000806101000a81548160ff0219169083151502179055505b6126a561372a565b6126ad613a98565b80156126ce5760008060016101000a81548160ff0219169083151502179055505b50565b600060019054906101000a900460ff16806126f7575060008054906101000a900460ff16155b612736576040517f08c379a000000000000000000000000000000000000000000000000000000000815260040161272d90614fac565b60405180910390fd5b60008060019054906101000a900460ff161590508015612786576001600060016101000a81548160ff02191690831515021790555060016000806101000a81548160ff0219169083151502179055505b61278e61372a565b612796613803565b61279e613b8c565b80156127bf5760008060016101000a81548160ff0219169083151502179055505b50565b6127ca610c60565b1561280a576040517f08c379a000000000000000000000000000000000000000000000000000000000815260040161280190614f4c565b60405180910390fd5b600160c960006101000a81548160ff0219169083151502179055507f62e78cea01bee320cd4e420270b5ea74000d11b0c9f74754ebdbfc544b05a25861284e611630565b60405161285b9190614c79565b60405180910390a1565b8173ffffffffffffffffffffffffffffffffffffffff168373ffffffffffffffffffffffffffffffffffffffff1614156128d4576040517f08c379a00000000000000000000000000000000000000000000000000000000081526004016128cb9061500c565b60405180910390fd5b80606660008573ffffffffffffffffffffffffffffffffffffffff1673ffffffffffffffffffffffffffffffffffffffff16815260200190815260200160002060008473ffffffffffffffffffffffffffffffffffffffff1673ffffffffffffffffffffffffffffffffffffffff16815260200190815260200160002060006101000a81548160ff0219169083151502179055508173ffffffffffffffffffffffffffffffffffffffff168373ffffffffffffffffffffffffffffffffffffffff167f17307eab39ab6107e8899845ad3d59bd9653f200f220920489ca2b5937696c31836040516129c59190614df4565b60405180910390a3505050565b600073ffffffffffffffffffffffffffffffffffffffff168373ffffffffffffffffffffffffffffffffffffffff161415612a42576040517f08c379a0000000000000000000000000000000000000000000000000000000008152600401612a3990614fcc565b60405180910390fd5b6000612a4c611630565b9050612a7c81856000612a5e87613238565b612a6787613238565b604051806020016040528060008152506132fe565b60006065600085815260200190815260200160002060008673ffffffffffffffffffffffffffffffffffffffff1673ffffffffffffffffffffffffffffffffffffffff16815260200190815260200160002054905082811015612b14576040517f08c379a0000000000000000000000000000000000000000000000000000000008152600401612b0b90614eec565b60405180910390fd5b8281036065600086815260200190815260200160002060008773ffffffffffffffffffffffffffffffffffffffff1673ffffffffffffffffffffffffffffffffffffffff16815260200190815260200160002081905550600073ffffffffffffffffffffffffffffffffffffffff168573ffffffffffffffffffffffffffffffffffffffff168373ffffffffffffffffffffffffffffffffffffffff167fc3d58168c5ae7397731d063d5bbf3d657854427343f4c083240f7aacaa2d0f628787604051612be29291906150c7565b60405180910390a45050505050565b600073ffffffffffffffffffffffffffffffffffffffff168473ffffffffffffffffffffffffffffffffffffffff161415612c61576040517f08c379a0000000000000000000000000000000000000000000000000000000008152600401612c589061506c565b60405180910390fd5b8151835114612ca5576040517f08c379a0000000000000000000000000000000000000000000000000000000008152600401612c9c9061504c565b60405180910390fd5b6000612caf611630565b9050612cc0816000878787876132fe565b60005b8451811015612dc657838181518110612d05577f4e487b7100000000000000000000000000000000000000000000000000000000600052603260045260246000fd5b602002602001015160656000878481518110612d4a577f4e487b7100000000000000000000000000000000000000000000000000000000600052603260045260246000fd5b6020026020010151815260200190815260200160002060008873ffffffffffffffffffffffffffffffffffffffff1673ffffffffffffffffffffffffffffffffffffffff1681526020019081526020016000206000828254612dac91906152d6565b925050819055508080612dbe906154d3565b915050612cc3565b508473ffffffffffffffffffffffffffffffffffffffff16600073ffffffffffffffffffffffffffffffffffffffff168273ffffffffffffffffffffffffffffffffffffffff167f4a39dc06d4c0dbc64b70af90fd698a233a518aa5d07e595d983b8c0526c8f7fb8787604051612e3e929190614dbd565b60405180910390a4612e5581600087878787613543565b5050505050565b60007fd9b67a26000000000000000000000000000000000000000000000000000000007bffffffffffffffffffffffffffffffffffffffffffffffffffffffff1916827bffffffffffffffffffffffffffffffffffffffffffffffffffffffff19161480612f2757507f0e89341c000000000000000000000000000000000000000000000000000000007bffffffffffffffffffffffffffffffffffffffffffffffffffffffff1916827bffffffffffffffffffffffffffffffffffffffffffffffffffffffff1916145b80612f375750612f3682613c65565b5b9050919050565b606060006002836002612f51919061532c565b612f5b91906152d6565b67ffffffffffffffff811115612f9a577f4e487b7100000000000000000000000000000000000000000000000000000000600052604160045260246000fd5b6040519080825280601f01601f191660200182016040528015612fcc5781602001600182028036833780820191505090505b5090507f30000000000000000000000000000000000000000000000000000000000000008160008151811061302a577f4e487b7100000000000000000000000000000000000000000000000000000000600052603260045260246000fd5b60200101907effffffffffffffffffffffffffffffffffffffffffffffffffffffffffffff1916908160001a9053507f7800000000000000000000000000000000000000000000000000000000000000816001815181106130b4577f4e487b7100000000000000000000000000000000000000000000000000000000600052603260045260246000fd5b60200101907effffffffffffffffffffffffffffffffffffffffffffffffffffffffffffff1916908160001a905350600060018460026130f4919061532c565b6130fe91906152d6565b90505b60018111156131ea577f3031323334353637383961626364656600000000000000000000000000000000600f861660108110613166577f4e487b7100000000000000000000000000000000000000000000000000000000600052603260045260246000fd5b1a60f81b8282815181106131a3577f4e487b7100000000000000000000000000000000000000000000000000000000600052603260045260246000fd5b60200101907effffffffffffffffffffffffffffffffffffffffffffffffffffffffffffff1916908160001a905350600485901c9450806131e390615446565b9050613101565b506000841461322e576040517f08c379a000000000000000000000000000000000000000000000000000000000815260040161322590614e6c565b60405180910390fd5b8091505092915050565b60606000600167ffffffffffffffff81111561327d577f4e487b7100000000000000000000000000000000000000000000000000000000600052604160045260246000fd5b6040519080825280602002602001820160405280156132ab5781602001602082028036833780820191505090505b50905082816000815181106132e9577f4e487b7100000000000000000000000000000000000000000000000000000000600052603260045260246000fd5b60200260200101818152505080915050919050565b613306610c60565b15613346576040517f08c379a000000000000000000000000000000000000000000000000000000000815260040161333d90614f4c565b60405180910390fd5b613354868686868686613ccf565b505050505050565b61337b8473ffffffffffffffffffffffffffffffffffffffff16613cd7565b1561353b578373ffffffffffffffffffffffffffffffffffffffff1663f23a6e6187878686866040518663ffffffff1660e01b81526004016133c1959493929190614cfc565b602060405180830381600087803b1580156133db57600080fd5b505af192505050801561340c57506040513d601f19601f8201168201806040525081019061340991906145a7565b60015b6134b2576134186155a9565b806308c379a01415613475575061342d615ba9565b806134385750613477565b806040517f08c379a000000000000000000000000000000000000000000000000000000000815260040161346c9190614e2a565b60405180910390fd5b505b6040517f08c379a00000000000000000000000000000000000000000000000000000000081526004016134a990614e4c565b60405180910390fd5b63f23a6e6160e01b7bffffffffffffffffffffffffffffffffffffffffffffffffffffffff1916817bffffffffffffffffffffffffffffffffffffffffffffffffffffffff191614613539576040517f08c379a000000000000000000000000000000000000000000000000000000000815260040161353090614e8c565b60405180910390fd5b505b505050505050565b6135628473ffffffffffffffffffffffffffffffffffffffff16613cd7565b15613722578373ffffffffffffffffffffffffffffffffffffffff1663bc197c8187878686866040518663ffffffff1660e01b81526004016135a8959493929190614c94565b602060405180830381600087803b1580156135c257600080fd5b505af19250505080156135f357506040513d601f19601f820116820180604052508101906135f091906145a7565b60015b613699576135ff6155a9565b806308c379a0141561365c5750613614615ba9565b8061361f575061365e565b806040517f08c379a00000000000000000000000000000000000000000000000000000000081526004016136539190614e2a565b60405180910390fd5b505b6040517f08c379a000000000000000000000000000000000000000000000000000000000815260040161369090614e4c565b60405180910390fd5b63bc197c8160e01b7bffffffffffffffffffffffffffffffffffffffffffffffffffffffff1916817bffffffffffffffffffffffffffffffffffffffffffffffffffffffff191614613720576040517f08c379a000000000000000000000000000000000000000000000000000000000815260040161371790614e8c565b60405180910390fd5b505b505050505050565b600060019054906101000a900460ff1680613750575060008054906101000a900460ff16155b61378f576040517f08c379a000000000000000000000000000000000000000000000000000000000815260040161378690614fac565b60405180910390fd5b60008060019054906101000a900460ff1615905080156137df576001600060016101000a81548160ff02191690831515021790555060016000806101000a81548160ff0219169083151502179055505b80156138005760008060016101000a81548160ff0219169083151502179055505b50565b600060019054906101000a900460ff1680613829575060008054906101000a900460ff16155b613868576040517f08c379a000000000000000000000000000000000000000000000000000000000815260040161385f90614fac565b60405180910390fd5b60008060019054906101000a900460ff1615905080156138b8576001600060016101000a81548160ff02191690831515021790555060016000806101000a81548160ff0219169083151502179055505b80156138d95760008060016101000a81548160ff0219169083151502179055505b50565b600060019054906101000a900460ff1680613902575060008054906101000a900460ff16155b613941576040517f08c379a000000000000000000000000000000000000000000000000000000000815260040161393890614fac565b60405180910390fd5b60008060019054906101000a900460ff161590508015613991576001600060016101000a81548160ff02191690831515021790555060016000806101000a81548160ff0219169083151502179055505b61399a826116d5565b80156139bb5760008060016101000a81548160ff0219169083151502179055505b5050565b600060019054906101000a900460ff16806139e5575060008054906101000a900460ff16155b613a24576040517f08c379a0000000000000000000000000000000000000000000000000000000008152600401613a1b90614fac565b60405180910390fd5b60008060019054906101000a900460ff161590508015613a74576001600060016101000a81548160ff02191690831515021790555060016000806101000a81548160ff0219169083151502179055505b8015613a955760008060016101000a81548160ff0219169083151502179055505b50565b600060019054906101000a900460ff1680613abe575060008054906101000a900460ff16155b613afd576040517f08c379a0000000000000000000000000000000000000000000000000000000008152600401613af490614fac565b60405180910390fd5b60008060019054906101000a900460ff161590508015613b4d576001600060016101000a81548160ff02191690831515021790555060016000806101000a81548160ff0219169083151502179055505b600060c960006101000a81548160ff0219169083151502179055508015613b895760008060016101000a81548160ff0219169083151502179055505b50565b600060019054906101000a900460ff1680613bb2575060008054906101000a900460ff16155b613bf1576040517f08c379a0000000000000000000000000000000000000000000000000000000008152600401613be890614fac565b60405180910390fd5b60008060019054906101000a900460ff161590508015613c41576001600060016101000a81548160ff02191690831515021790555060016000806101000a81548160ff0219169083151502179055505b8015613c625760008060016101000a81548160ff0219169083151502179055505b50565b60007f01ffc9a7000000000000000000000000000000000000000000000000000000007bffffffffffffffffffffffffffffffffffffffffffffffffffffffff1916827bffffffffffffffffffffffffffffffffffffffffffffffffffffffff1916149050919050565b505050505050565b600080823b905060008111915050919050565b828054613cf690615470565b90600052602060002090601f016020900481019282613d185760008555613d5f565b82601f10613d3157805160ff1916838001178555613d5f565b82800160010185558215613d5f579182015b82811115613d5e578251825591602001919060010190613d43565b5b509050613d6c9190613d70565b5090565b5b80821115613d89576000816000905550600101613d71565b5090565b6000613da0613d9b84615115565b6150f0565b90508083825260208201905082856020860282011115613dbf57600080fd5b60005b85811015613def5781613dd58882613f3e565b845260208401935060208301925050600181019050613dc2565b5050509392505050565b6000613e0c613e0784615141565b6150f0565b9050808382526020820190508260005b85811015613e4c5781358501613e32888261404f565b845260208401935060208301925050600181019050613e1c565b5050509392505050565b6000613e69613e648461516d565b6150f0565b90508083825260208201905082856020860282011115613e8857600080fd5b60005b85811015613eb85781613e9e8882614079565b845260208401935060208301925050600181019050613e8b565b5050509392505050565b6000613ed5613ed084615199565b6150f0565b905082815260208101848484011115613eed57600080fd5b613ef8848285615404565b509392505050565b6000613f13613f0e846151ca565b6150f0565b905082815260208101848484011115613f2b57600080fd5b613f36848285615404565b509392505050565b600081359050613f4d81615c3f565b92915050565b600082601f830112613f6457600080fd5b8135613f74848260208601613d8d565b91505092915050565b600082601f830112613f8e57600080fd5b8135613f9e848260208601613df9565b91505092915050565b600082601f830112613fb857600080fd5b8135613fc8848260208601613e56565b91505092915050565b600081359050613fe081615c56565b92915050565b600081359050613ff581615c6d565b92915050565b60008135905061400a81615c84565b92915050565b60008151905061401f81615c84565b92915050565b600082601f83011261403657600080fd5b8135614046848260208601613ec2565b91505092915050565b600082601f83011261406057600080fd5b8135614070848260208601613f00565b91505092915050565b60008135905061408881615c9b565b92915050565b6000602082840312156140a057600080fd5b60006140ae84828501613f3e565b91505092915050565b600080604083850312156140ca57600080fd5b60006140d885828601613f3e565b92505060206140e985828601613f3e565b9150509250929050565b600080600080600060a0868803121561410b57600080fd5b600061411988828901613f3e565b955050602061412a88828901613f3e565b945050604086013567ffffffffffffffff81111561414757600080fd5b61415388828901613fa7565b935050606086013567ffffffffffffffff81111561417057600080fd5b61417c88828901613fa7565b925050608086013567ffffffffffffffff81111561419957600080fd5b6141a588828901614025565b9150509295509295909350565b600080600080600060a086880312156141ca57600080fd5b60006141d888828901613f3e565b95505060206141e988828901613f3e565b94505060406141fa88828901614079565b935050606061420b88828901614079565b925050608086013567ffffffffffffffff81111561422857600080fd5b61423488828901614025565b9150509295509295909350565b6000806000806080858703121561425757600080fd5b600061426587828801613f3e565b945050602085013567ffffffffffffffff81111561428257600080fd5b61428e87828801613fa7565b935050604085013567ffffffffffffffff8111156142ab57600080fd5b6142b787828801613f7d565b925050606085013567ffffffffffffffff8111156142d457600080fd5b6142e087828801613fa7565b91505092959194509250565b60008060006060848603121561430157600080fd5b600061430f86828701613f3e565b935050602084013567ffffffffffffffff81111561432c57600080fd5b61433886828701613fa7565b925050604084013567ffffffffffffffff81111561435557600080fd5b61436186828701613fa7565b9150509250925092565b6000806040838503121561437e57600080fd5b600061438c85828601613f3e565b925050602061439d85828601613fd1565b9150509250929050565b600080604083850312156143ba57600080fd5b60006143c885828601613f3e565b92505060206143d985828601614079565b9150509250929050565b600080600080608085870312156143f957600080fd5b600061440787828801613f3e565b945050602061441887828801614079565b935050604085013567ffffffffffffffff81111561443557600080fd5b6144418782880161404f565b925050606061445287828801614079565b91505092959194509250565b60008060006060848603121561447357600080fd5b600061448186828701613f3e565b935050602061449286828701614079565b92505060406144a386828701614079565b9150509250925092565b600080604083850312156144c057600080fd5b600083013567ffffffffffffffff8111156144da57600080fd5b6144e685828601613f53565b925050602083013567ffffffffffffffff81111561450357600080fd5b61450f85828601613fa7565b9150509250929050565b60006020828403121561452b57600080fd5b600061453984828501613fe6565b91505092915050565b6000806040838503121561455557600080fd5b600061456385828601613fe6565b925050602061457485828601613f3e565b9150509250929050565b60006020828403121561459057600080fd5b600061459e84828501613ffb565b91505092915050565b6000602082840312156145b957600080fd5b60006145c784828501614010565b91505092915050565b6000602082840312156145e257600080fd5b600082013567ffffffffffffffff8111156145fc57600080fd5b6146088482850161404f565b91505092915050565b60006020828403121561462357600080fd5b600061463184828501614079565b91505092915050565b6000806040838503121561464d57600080fd5b600061465b85828601614079565b925050602061466c85828601614079565b9150509250929050565b600061468283836147db565b905092915050565b60006146968383614bff565b60208301905092915050565b6146ab81615386565b82525050565b60006146bc82615230565b6146c68185615276565b9350836020820285016146d8856151fb565b8060005b8581101561471457848403895281516146f58582614676565b94506147008361525c565b925060208a019950506001810190506146dc565b50829750879550505050505092915050565b60006147318261523b565b61473b8185615287565b93506147468361520b565b8060005b8381101561477757815161475e888261468a565b975061476983615269565b92505060018101905061474a565b5085935050505092915050565b61478d81615398565b82525050565b61479c816153a4565b82525050565b60006147ad82615246565b6147b78185615298565b93506147c7818560208601615413565b6147d0816155cb565b840191505092915050565b60006147e682615251565b6147f081856152a9565b9350614800818560208601615413565b614809816155cb565b840191505092915050565b600061481f82615251565b61482981856152ba565b9350614839818560208601615413565b614842816155cb565b840191505092915050565b600061485882615251565b61486281856152cb565b9350614872818560208601615413565b80840191505092915050565b6000815461488b81615470565b61489581866152cb565b945060018216600081146148b057600181146148c1576148f4565b60ff198316865281860193506148f4565b6148ca8561521b565b60005b838110156148ec578154818901526001820191506020810190506148cd565b838801955050505b50505092915050565b600061490a6034836152ba565b9150614915826155e9565b604082019050919050565b600061492d6020836152ba565b915061493882615638565b602082019050919050565b60006149506028836152ba565b915061495b82615661565b604082019050919050565b60006149736014836152ba565b915061497e826156b0565b602082019050919050565b6000614996602b836152ba565b91506149a1826156d9565b604082019050919050565b60006149b96024836152ba565b91506149c482615728565b604082019050919050565b60006149dc6029836152ba565b91506149e782615777565b604082019050919050565b60006149ff6012836152ba565b9150614a0a826157c6565b602082019050919050565b6000614a22601c836152cb565b9150614a2d826157ef565b601c82019050919050565b6000614a456010836152ba565b9150614a5082615818565b602082019050919050565b6000614a686025836152ba565b9150614a7382615841565b604082019050919050565b6000614a8b6032836152ba565b9150614a9682615890565b604082019050919050565b6000614aae602e836152ba565b9150614ab9826158df565b604082019050919050565b6000614ad16023836152ba565b9150614adc8261592e565b604082019050919050565b6000614af4602a836152ba565b9150614aff8261597d565b604082019050919050565b6000614b176017836152cb565b9150614b22826159cc565b601782019050919050565b6000614b3a6029836152ba565b9150614b45826159f5565b604082019050919050565b6000614b5d6029836152ba565b9150614b6882615a44565b604082019050919050565b6000614b806028836152ba565b9150614b8b82615a93565b604082019050919050565b6000614ba36021836152ba565b9150614bae82615ae2565b604082019050919050565b6000614bc66011836152cb565b9150614bd182615b31565b601182019050919050565b6000614be9602f836152ba565b9150614bf482615b5a565b604082019050919050565b614c08816153fa565b82525050565b614c17816153fa565b82525050565b6000614c2882614a15565b9150614c34828461487e565b915081905092915050565b6000614c4a82614b0a565b9150614c56828561484d565b9150614c6182614bb9565b9150614c6d828461484d565b91508190509392505050565b6000602082019050614c8e60008301846146a2565b92915050565b600060a082019050614ca960008301886146a2565b614cb660208301876146a2565b8181036040830152614cc88186614726565b90508181036060830152614cdc8185614726565b90508181036080830152614cf081846147a2565b90509695505050505050565b600060a082019050614d1160008301886146a2565b614d1e60208301876146a2565b614d2b6040830186614c0e565b614d386060830185614c0e565b8181036080830152614d4a81846147a2565b90509695505050505050565b6000606082019050614d6b60008301866146a2565b8181036020830152614d7d8185614726565b90508181036040830152614d9181846146b1565b9050949350505050565b60006020820190508181036000830152614db58184614726565b905092915050565b60006040820190508181036000830152614dd78185614726565b90508181036020830152614deb8184614726565b90509392505050565b6000602082019050614e096000830184614784565b92915050565b6000602082019050614e246000830184614793565b92915050565b60006020820190508181036000830152614e448184614814565b905092915050565b60006020820190508181036000830152614e65816148fd565b9050919050565b60006020820190508181036000830152614e8581614920565b9050919050565b60006020820190508181036000830152614ea581614943565b9050919050565b60006020820190508181036000830152614ec581614966565b9050919050565b60006020820190508181036000830152614ee581614989565b9050919050565b60006020820190508181036000830152614f05816149ac565b9050919050565b60006020820190508181036000830152614f25816149cf565b9050919050565b60006020820190508181036000830152614f45816149f2565b9050919050565b60006020820190508181036000830152614f6581614a38565b9050919050565b60006020820190508181036000830152614f8581614a5b565b9050919050565b60006020820190508181036000830152614fa581614a7e565b9050919050565b60006020820190508181036000830152614fc581614aa1565b9050919050565b60006020820190508181036000830152614fe581614ac4565b9050919050565b6000602082019050818103600083015261500581614ae7565b9050919050565b6000602082019050818103600083015261502581614b2d565b9050919050565b6000602082019050818103600083015261504581614b50565b9050919050565b6000602082019050818103600083015261506581614b73565b9050919050565b6000602082019050818103600083015261508581614b96565b9050919050565b600060208201905081810360008301526150a581614bdc565b9050919050565b60006020820190506150c16000830184614c0e565b92915050565b60006040820190506150dc6000830185614c0e565b6150e96020830184614c0e565b9392505050565b60006150fa61510b565b905061510682826154a2565b919050565b6000604051905090565b600067ffffffffffffffff8211156151305761512f61557a565b5b602082029050602081019050919050565b600067ffffffffffffffff82111561515c5761515b61557a565b5b602082029050602081019050919050565b600067ffffffffffffffff8211156151885761518761557a565b5b602082029050602081019050919050565b600067ffffffffffffffff8211156151b4576151b361557a565b5b6151bd826155cb565b9050602081019050919050565b600067ffffffffffffffff8211156151e5576151e461557a565b5b6151ee826155cb565b9050602081019050919050565b6000819050602082019050919050565b6000819050602082019050919050565b60008190508160005260206000209050919050565b600081519050919050565b600081519050919050565b600081519050919050565b600081519050919050565b6000602082019050919050565b6000602082019050919050565b600082825260208201905092915050565b600082825260208201905092915050565b600082825260208201905092915050565b600082825260208201905092915050565b600082825260208201905092915050565b600081905092915050565b60006152e1826153fa565b91506152ec836153fa565b9250827fffffffffffffffffffffffffffffffffffffffffffffffffffffffffffffffff038211156153215761532061551c565b5b828201905092915050565b6000615337826153fa565b9150615342836153fa565b9250817fffffffffffffffffffffffffffffffffffffffffffffffffffffffffffffffff048311821515161561537b5761537a61551c565b5b828202905092915050565b6000615391826153da565b9050919050565b60008115159050919050565b6000819050919050565b60007fffffffff0000000000000000000000000000000000000000000000000000000082169050919050565b600073ffffffffffffffffffffffffffffffffffffffff82169050919050565b6000819050919050565b82818337600083830152505050565b60005b83811015615431578082015181840152602081019050615416565b83811115615440576000848401525b50505050565b6000615451826153fa565b915060008214156154655761546461551c565b5b600182039050919050565b6000600282049050600182168061548857607f821691505b6020821081141561549c5761549b61554b565b5b50919050565b6154ab826155cb565b810181811067ffffffffffffffff821117156154ca576154c961557a565b5b80604052505050565b60006154de826153fa565b91507fffffffffffffffffffffffffffffffffffffffffffffffffffffffffffffffff8214156155115761551061551c565b5b600182019050919050565b7f4e487b7100000000000000000000000000000000000000000000000000000000600052601160045260246000fd5b7f4e487b7100000000000000000000000000000000000000000000000000000000600052602260045260246000fd5b7f4e487b7100000000000000000000000000000000000000000000000000000000600052604160045260246000fd5b600060033d11156155c85760046000803e6155c56000516155dc565b90505b90565b6000601f19601f8301169050919050565b60008160e01c9050919050565b7f455243313135353a207472616e7366657220746f206e6f6e204552433131353560008201527f526563656976657220696d706c656d656e746572000000000000000000000000602082015250565b7f537472696e67733a20686578206c656e67746820696e73756666696369656e74600082015250565b7f455243313135353a204552433131353552656365697665722072656a6563746560008201527f6420746f6b656e73000000000000000000000000000000000000000000000000602082015250565b7f5061757361626c653a206e6f7420706175736564000000000000000000000000600082015250565b7f455243313135353a2062616c616e636520717565727920666f7220746865207a60008201527f65726f2061646472657373000000000000000000000000000000000000000000602082015250565b7f455243313135353a206275726e20616d6f756e7420657863656564732062616c60008201527f616e636500000000000000000000000000000000000000000000000000000000602082015250565b7f455243313135353a2063616c6c6572206973206e6f74206f776e6572206e6f7260008201527f20617070726f7665640000000000000000000000000000000000000000000000602082015250565b7f496e73756666696369656e742046756e64730000000000000000000000000000600082015250565b7f68747470733a2f2f697066732e696e667572612e696f2f697066732f00000000600082015250565b7f5061757361626c653a2070617573656400000000000000000000000000000000600082015250565b7f455243313135353a207472616e7366657220746f20746865207a65726f20616460008201527f6472657373000000000000000000000000000000000000000000000000000000602082015250565b7f455243313135353a207472616e736665722063616c6c6572206973206e6f742060008201527f6f776e6572206e6f7220617070726f7665640000000000000000000000000000602082015250565b7f496e697469616c697a61626c653a20636f6e747261637420697320616c72656160008201527f647920696e697469616c697a6564000000000000000000000000000000000000602082015250565b7f455243313135353a206275726e2066726f6d20746865207a65726f206164647260008201527f6573730000000000000000000000000000000000000000000000000000000000602082015250565b7f455243313135353a20696e73756666696369656e742062616c616e636520666f60008201527f72207472616e7366657200000000000000000000000000000000000000000000602082015250565b7f416363657373436f6e74726f6c3a206163636f756e7420000000000000000000600082015250565b7f455243313135353a2073657474696e6720617070726f76616c2073746174757360008201527f20666f722073656c660000000000000000000000000000000000000000000000602082015250565b7f455243313135353a206163636f756e747320616e6420696473206c656e67746860008201527f206d69736d617463680000000000000000000000000000000000000000000000602082015250565b7f455243313135353a2069647320616e6420616d6f756e7473206c656e6774682060008201527f6d69736d61746368000000000000000000000000000000000000000000000000602082015250565b7f455243313135353a206d696e7420746f20746865207a65726f2061646472657360008201527f7300000000000000000000000000000000000000000000000000000000000000602082015250565b7f206973206d697373696e6720726f6c6520000000000000000000000000000000600082015250565b7f416363657373436f6e74726f6c3a2063616e206f6e6c792072656e6f756e636560008201527f20726f6c657320666f722073656c660000000000000000000000000000000000602082015250565b600060443d1015615bb957615c3c565b615bc161510b565b60043d036004823e80513d602482011167ffffffffffffffff82111715615be9575050615c3c565b808201805167ffffffffffffffff811115615c075750505050615c3c565b80602083010160043d038501811115615c24575050505050615c3c565b615c33826020018501866154a2565b82955050505050505b90565b615c4881615386565b8114615c5357600080fd5b50565b615c5f81615398565b8114615c6a57600080fd5b50565b615c76816153a4565b8114615c8157600080fd5b50565b615c8d816153ae565b8114615c9857600080fd5b50565b615ca4816153fa565b8114615caf57600080fd5b5056fea26469706673582212208b84e024438ac0ce9e47d295df8a828a169c261d816a5c87759f872360929f2964736f6c63430008030033",
  "linkReferences": {},
  "deployedLinkReferences": {}
}